:020000040800F2
:100000004000002031010008D9020008D902000890
:10001000D9020008D9020008D90200080000000037
:10002000000000000000000000000000D9020008ED
:10003000D9020008000000007F010008C301000889
:10004000D9020008D9020008D9020008D902000824
:10005000D9020008D9020008D9020008D902000814
:10006000D9020008D9020008D9020008D902000804
:10007000D9020008D9020008D9020008D9020008F4
:10008000D9020008D9020008D9020008D9020008E4
:10009000D9020008D9020008D9020008D9020008D4
:1000A000D9020008D9020008D9020008D9020008C4
:1000B000D9020008D9020008D9020008D9020008B4
:1000C000D9020008D9020008D9020008D9020008A4
:1000D000D9020008D9020008D9020008D902000894
:1000E000D9020008D9020008D9020008D902000884
:1000F000D9020008D9020008D9020008D902000874
:10010000D9020008D9020008D9020008D902000863
:10011000D9020008D9020008D9020008D902000853
:10012000D9020008D9020008D9020008D902000843
:1001300072B66A496A4A6B4B9A421EBF01C901C234
:10014000FAE7694A694B00209A421CBF01C2FBE7EB
:1001500000F0E0F800F020FA65480721654A00F059
:100160007AF865480021654A00F075F8002080F3B0
:10017000098863484FF08051016062B6FEE7EFF3F3
:10018000098090B120E9F00F5E4A02F12001937FCF
:1001900041F82300D37F937751F82300B0E8F00FA4
:1001A00080F309886FF0020E7047574880F3088883
:1001B0005449086AB0E8F00F80F309886FF0020E26
:1001C00070474AF6AA20514908804E48D0E90621D6
:1001D00022B1013A08BF41F040018261D0E9042315
:1001E00023B1013B08BF41F02001436122B1013A34
:1001F00008BF41F010010261D0E9022323B1013BA5
:1002000008BF41F00801C36022B1013A08BF41F0C4
:1002100004018260D0E9002323B1013B08BF41F013
:100220000201436022B1013A08BF41F001010260BE
:1002300091FAA1F2B2FA82F262F31F61C161C1F3D5
:1002400007418A421EBF2E484FF08051016070471F
:1002500030BFFFF7FDBF4FF0807322E909006FF058
:10026000010342F8043D343A294840F82120012294
:100270008A40EFF3108372B650F8041D114391FACF
:10028000A1F2B2FA82F262F31F610160C1F3074189
:100290008A421EBF1A484FF08051016083F31088D4
:1002A000704710B51749EFF3108472B6CA69C2F3EC
:1002B000074341F8230001209840824392FAA2F0BC
:1002C000B0FA80F060F31F62CA610D484FF08051B0
:1002D000016084F3108810BD72B6FEE7F4E40008F4
:1002E000F0020020F002002040000020F002002078
:1002F00051020008A800002005050008A8020020FF
:1003000004ED00E0A8020020400000200030004082
:10031000C802002002213A4B1A68A3F6FC7361F36D
:1003200002020E21C3F8FC2F1A6861F395420421E2
:100330001A601A6861F30A221A601A686FF3CD22F4
:100340001A601A6842F440421A602E4A116841F05D
:100350008071116011688901FCD502211A6861F36E
:1003600001021A601A68C2F38102022AFAD1264BEE
:100370001A6842F001021A601A6842F004021A6018
:100380001A6842F008021A601A6842F010021A60F5
:100390001A6842F020021A601C4B1D4A1A60702332
:1003A0001C4A1370537041F63F721B4B1A6053F88E
:1003B000042C42F0020243F8042C53F8042C42F0BF
:1003C000010243F8042C154B1A6842F001021A602E
:1003D0001A689207FCD5124B1A68002AFCD145F224
:1003E0005551104B198010490A704FF480610F4A23
:1003F00011804AF6AA221A804CF6CC421A80704725
:100400000020024000100240181002400CED00E0F5
:100410000007FA0522ED00E014E000E0241002409D
:100420000C300040003000400430004008300040F4
:100430000A4AC0001368834206D3181A116888421A
:100440000AD28B42FAD2704703F5FA51081A1168A2
:100450008842FCD98B42FAD2704700BF18E000E016
:10046000064B1A684FF080731B681A4205D04FF094
:1004700060431A68002AFCD018707047FCED00E059
:10048000014608B511F8010B00B908BDFFF7E8FFF8
:10049000F8E7C3B2092894BF03F1300003F1370035
:1004A000C0B2704707B50246000BFFF7F2FF8DF8A8
:1004B0000000C2F30320FFF7ECFF8DF80100C2F348
:1004C0000310FFF7E6FF8DF8020002F00F00FFF7C0
:1004D000E0FF42F23A03ADF8043000238DF8030048
:1004E00068468DF80630FFF7CBFF03B05DF804FBDC
:1004F0000A2307B502A820F8043DFFF7C1FF03B0A7
:100500005DF804FB80B500F00DFB10221C4811467D
:1005100000F066FB1022A821194800F061FB4FF49F
:1005200082721021164800F05BFB4FF48272A82102
:10053000134800F055FB134E134D144F2B78F05C0D
:1005400000F02AFB2C78305DFFF7ACFF3888FFF70E
:10055000A9FF0F4B01341888FFF7A4FF0D4BE4B23D
:100560001888FFF79FFFFFF7C3FF112C88BF0023F8
:100570004FF47A7094BF2C702B70FFF792FEDDE77A
:10058000320C0008200C000840000020E802002087
:10059000EC020020EA020020082030B5684B01245C
:1005A0001A68684D60F303021A600322196862F347
:1005B00007111960196862F30B211960196862F359
:1005C0000F311960196862F313411960196862F3F9
:1005D00017511960196862F31B611960196862F399
:1005E0001F711960596862F303015960596862F319
:1005F00007115960596862F30B215960596862F319
:100600000F315960596862F313415960596860F3BA
:100610001F7159604C4B1C604C4B196862F303010D
:100620001960196862F307111960196862F30B21E8
:100630001960196860F30F31196045490C60196839
:1006400060F31341196043490C60196860F3175156
:100650001960196860F31B611960196862F31F71F2
:1006600019603D490B6860F303030B6000232B60A6
:100670000D6860F307150D60384D2B600D6862F34F
:100680000B250D600D6862F30F350D600D6862F388
:1006900013450D600D6862F317550D600D6862F328
:1006A0001B650D600D6862F31F752D4A0D601168A2
:1006B00060F3175111602B490B60116860F31B61E7
:1006C000116029490B60116860F31F711160274A9E
:1006D0001360274A116860F30301116025490B601C
:1006E000116860F307111160234A1360A2F57F427D
:1006F000DC3A1360536042F8203C936042F8243C9B
:10070000D36042F8283C1361A2F500420C3A136012
:1007100002F5004220321360A2F50042243A136031
:10072000936042F8043CD36042F8083C1361134BD9
:100730001C601C6243F8044C5C6243F8084C30BDFA
:1007400000080140A0812142BC012142000C01406F
:100750008C81214290812142040C0140A4812142DC
:1007600004100140B4012242B8012242BC012242DD
:100770000014014080812242848122428C01214266
:1007800000222449244B10B5C40B1A600C60C0F33E
:1007900080344C60C0F3403441F8204CC0F3003446
:1007A0008C60C0F3C02441F8244CC0F38024CC609A
:1007B000C0F3402441F8284CC0F300240C61A1F59B
:1007C0000041C0F3C0140C390C6001F50041C0F3C6
:1007D000801420310C60A1F500412439C0F340148D
:1007E0000C60C0F300148C60C0F3C00441F8044CEA
:1007F000C0F38004CC60C0F3400400F0010041F875
:10080000084C086141F8102C012241F8102C1A60A4
:1008100010BD00BFA8812142840121420022024B69
:100820001A60FFF7ADBF00BFB00121420122024BA9
:100830001A60FFF7A5BF00BFB00121420823324A6A
:10084000116863F313411160116863F3175111606C
:10085000116863F31B611160116863F31F7111600C
:10086000516863F303015160516863F307115160EC
:10087000516863F30B21516002F58062116863F3E4
:1008800003011160116863F307111160116863F3CC
:100890000B211160516863F30B215160516863F3C0
:1008A0000F315160516863F313415160516863F334
:1008B00017515160516863F31B615160516863F3D4
:1008C0001F7101235160114A1360536042F8203CAC
:1008D000936042F8243CD36042F8283C1361A2F5AF
:1008E00000420C3A136002F5004220321360A2F578
:1008F0000042243A1360936042F8043CD36042F80B
:10090000083C1361704700BF00080140A8812142E4
:100910000323224A116863F313411160116863F3E2
:1009200017511160116863F31B611160116863F363
:100930001F711160516863F303015160516863F3E3
:1009400007115160516863F30B21516002F5806219
:10095000116863F303011160116863F307111160FB
:10096000116863F30B211160516863F30B2151602F
:10097000516863F30F315160516863F31341516063
:10098000516863F317515160516863F31B61516003
:10099000516863F31F715160704700BF0008014048
:1009A00070B5FFF74BFF01222A4B2B4D1A60002335
:1009B0002A482B6003602A4B1A6803F58063C2F350
:1009C0008024D10648BF44F00204960548BF44F095
:1009D0000404910648BF44F008041B68D60548BFCC
:1009E00044F01004510648BF44F020041E0448BFE0
:1009F00044F04004110648BF44F080045A0448BF44
:100A000044F48074DE0748BF44F40074990448BF7E
:100A100044F480649A0748BF44F40064DE044FF055
:100A2000010648BF44F48054590748BF44F40054B9
:100A30001A0548BF44F480445B0548BF44F40044B1
:100A400006600220FFF7F4FCFFF762FF2E602046ED
:100A500070BD00BFB001214284012142AC0121429E
:100A60000808014038B505460C462A20FFF7D6FE97
:100A7000280AFFF7DBFEE8B2FFF7D8FE0120FFF7F8
:100A8000D5FE3F20FFF7D2FE2B20FFF7C7FE200A3E
:100A9000FFF7CCFEE0B2FFF7C9FE0120FFF7C6FE6C
:100AA000BDE83840DF20FFF7C1BEF8B5078885886C
:100AB0004688C4883D442A20FFF7B0FE013D380A2D
:100AC000ADB2FFF7B3FEF8B2FFF7B0FE280AFFF7AA
:100AD000ADFEE8B2FFF7AAFE34442B20FFF79EFEDE
:100AE000013C300AA4B2FFF7A1FEF0B2FFF79EFE70
:100AF000200AFFF79BFEE0B2BDE8F840FFF796BE84
:100B0000002138B505460846FFF7ACFF2C20FFF75B
:100B100085FE4FF416342846FFF788FE013CFAD1D3
:100B200038BD000070B5012400261A4D0A202C6043
:100B3000FFF7B7FB2E600A20FFF7B3FB2C6078208D
:100B4000FFF7AFFB2046FFF769FE7820FFF7A9FB10
:100B50002120FFF763FE3620FFF760FE4C20FFF7F1
:100B600065FE3A20FFF75AFE5520FFF75FFE31463B
:100B70003046FFF777FF1120FFF750FE7820FFF790
:100B800090FB2920FFF74AFEBDE870404FF6FF704A
:100B9000FFF7B6BF8C01214210B5FFF73FFEFFF70C
:100BA000FFFEFFF7FDFE0B4C00022080FFF7F8FE72
:100BB000238818432080FFF7F3FE074C00022080B3
:100BC000FFF7EEFE238818432080FFF7E9FE034B72
:100BD000188010BDE8020020EC020020EA0200208C
:100BE00073B50E4B05466846ADF80010ADF802200F
:100BF0000193FFF75AFF2C20FFF710FE00244DF65B
:100C0000C0062B19285D5B78023443EA0020FFF709
:100C10000DFEB442F5D102B070BD00BF8800CC001B
:100C20000405090A0B0C0D0E0F455254565F68DA85
:100C3000DBDCFFFFFFFFFFFFFFFFFFFFFFFFFFFF0B
:100C4000FFFFFFFFFFFFFFFFFFFFFFFFFFFFFFFFB4
:100C5000FFFFFFFFFFFFFFFFFFFFFFFFFFFFFFFFA4
:100C6000FFFFFFFFFFFFFFFFFFFFFFFFFFFFFFFF94
:100C7000FFFFFFFFFFFFFFFFFFFFFFFFFFFFFFFF84
:100C8000FFFFFFFFFFFFFFFFFFFFFFFFFFFFFFFF74
:100C9000FFFFFFFFFFFFFFDF630C39E78C51BDF75C
:100CA000EF7DFFFFFFFFFFFFFFFFFFFFFFFFFFFFE6
:100CB000FFFFFFFFFFFFFFFFFFFFFFFFFFFFFFFF44
:100CC000FFFFFFFFFFFFFFFFFFFFFFFFFFFFFFFF34
:100CD000EF5D9CD3A514FFFFFFFFFFFFFFFFFFFFAA
:100CE000FFFFFFFFFFFFFFFFFFFFFFFFFFFFFFFF14
:100CF000FFFFFFFFFFFFFFFFFFFFFFFFFFFFFFFF04
:100D0000FFFFFFFFFFFFFFFFFFFFFFFFFFFFFFFFF3
:100D1000FFFFFFFFFFFFFFFFFFFFFFFFFFFFFFFFE3
:100D2000FFFFFFFFFFFFFFFFFFFFFFFFFFFFFFFFD3
:100D3000FFFFFFFFFFFFFFFFFFFFFFFFFFFFFFFFC3
:100D4000FFFFFFFFFFFFFFFFFFFFFFFFFFFFFFFFB3
:100D5000FFFFFFFFFFFFFFFFFFFFFFFFFFFFFFFFA3
:100D6000FFFFFFFFFFFFFFFFFFFFFFFFFFFFFFFF93
:100D7000FFFFFFFFFFFFFFFFFFFFFFFFFFFFFFFF83
:100D8000FFFFFFFFFFFFFFFFFFFFFFFFFFFFFFFF73
:100D9000FFFFFFFFFFFFFFFFFFFFFFFFFFFFFFFF63
:100DA000FFFFFFFFFFFFFFFFB5D6000000000000C0
:100DB0001082528A94B2DEFBFFFFFFFFFFFFFFFFAE
:100DC000FFFFFFFFFFFFEF7DFFFFFFFFFFFFFFFFC5
:100DD000FFFFFFFFFFFFFFFFFFFFFFFFA51339C767
:100DE000084100009492FFFFFFFFFFFFFFFFFFFF9E
:100DF000FFFFFFFFFFFFFFFFFFFFFFFFFFFFFFFF03
:100E0000FFFFFFFFFFFFFFFFFFFFFFFFFFFFFFFFF2
:100E1000FFFFFFFFFFFFFFFFFFFFFFFFFFFFFFFFE2
:100E2000FFFFFFFFFFFFFFFFFFFFFFFFFFFFFFFFD2
:100E3000FFFFFFFFFFFFFFFFFFFFFFFFFFFFFFFFC2
:100E4000FFFFFFFFFFFFFFFFFFFFFFFFFFFFFFFFB2
:100E5000FFFFFFFFFFFFFFFFFFFFFFFFFFFFFFFFA2
:100E6000FFFFFFFFFFFFFFFFFFFFFFFFFFFFFFFF92
:100E7000FFFFFFFFFFFFFFFFFFFFFFFFFFFFFFFF82
:100E8000FFFFFFFFFFFFFFFFFFFFFFFFFFFFFFFF72
:100E9000FFFFFFFFFFFFFFFFFFFFFFFFFFFFFFFF62
:100EA000FFFFFFFFFFFFFFFFFFFFFFFFFFFFFFFF52
:100EB000FFFFFFFFFFFFFFFFFFFFCE7908410000AC
:100EC000000000000000000042298410E75CFFFFE2
:100ED000FFFFFFFFFFFF949252AAFFFFFFFFFFFFFC
:100EE000FFFFFFFFFFFFCE59630C31A600013186E3
:100EF00021042104FFFFFFFFFFFFFFFFFFFFFFFFB4
:100F0000FFFFFFFFFFFFFFFFFFFFFFFFFFFFFFFFF1
:100F1000FFFFFFFFFFFFFFFFFFFFFFFFFFFFFFFFE1
:100F2000FFFFFFFFFFFFFFFFFFFFFFFFFFFFFFFFD1
:100F3000FFFFFFFFFFFFFFFFFFFFFFFFFFFFFFFFC1
:100F4000FFFFFFFFFFFFFFFFFFFFFFFFFFFFFFFFB1
:100F5000FFFFFFFFFFFFFFFFFFFFFFFFFFFFFFFFA1
:100F6000FFFFFFFFFFFFFFFFFFFFFFFFFFFFFFFF91
:100F7000FFFFFFFFFFFFFFFFFFFFFFFFFFFFFFFF81
:100F8000FFFFFFFFFFFFFFFFFFFFFFFFFFFFFFFF71
:100F9000FFFFFFFFFFFFFFFFFFFFFFFFFFFFFFFF61
:100FA000FFFFFFFFFFFFFFFFFFFFFFFFFFFFFFFF51
:100FB000FFFFFFFFFFDFE73CD6BACE59C638C63881
:100FC000C638CE59D6BAE71CF7BEFFFF8410000022
:100FD000000000000000000000000000106184100C
:100FE000FFFFFFFFFFFF8C500000FFFFFFFFFFFF31
:100FF000FFFFE71B528A086218C339E86B8FCE598E
:1010000018C38410FFFFFFFFFFFFFFFFFFFFFFFF7D
:10101000FFFFFFFFFFFFFFFFFFFFFFFFFFFFFFFFE0
:10102000FFFFFFFFFFFFFFFFFFFFFFFFFFFFFFFFD0
:10103000FFFFFFFFFFFFFFFFFFFFFFFFFFFFFFFFC0
:10104000FFFFFFFFFFFFFFFFFFFFFFFFFFFFFFFFB0
:10105000FFFFFFFFFFFFFFFFFFFFFFFFFFFFFFFFA0
:10106000FFFFFFFFFFFFFFFFFFFFFFFFFFFFFFFF90
:10107000FFFFFFFFFFFFFFFFFFFFFFFFFFFFFFFF80
:10108000FFFFFFFFFFFFFFFFFFFFFFFFFFFFFFFF70
:10109000FFFFFFFFFFFFFFFFFFFFFFFFFFFFFFFF60
:1010A000FFFFFFFFFFFFFFFFFFFFFFFFFFFFFFFF50
:1010B000FFFFFFFFFFFFFFFFFFFFF7BEAD558410EF
:1010C000630C39C720E40821000000000000000084
:1010D000000000000000000010A2318639A70000C7
:1010E00000000000000000000841000000000000B7
:1010F000528AE73CFFFF8C5100006B4DFFFFFFDF82
:101100008C5131862125630D6BAF52EC94D3632D46
:101110000000DEFBFFFFFFFFFFFFFFFFFFFFFFFF02
:10112000FFFFFFFFFFFFFFFFFFFFFFFFFFFFFFFFCF
:10113000FFFFFFFFFFFFFFFFFFFFFFFFFFFFFFFFBF
:10114000FFFFFFFFFFFFFFFFFFFFFFFFFFFFFFFFAF
:10115000FFFFFFFFFFFFFFFFFFFFFFFFFFFFFFFF9F
:10116000FFFFFFFFFFFFFFFFFFFFFFFFFFFFFFFF8F
:10117000FFFFFFFFFFFFFFFFFFFFFFFFFFFFFFFF7F
:10118000FFFFFFFFFFFFFFFFFFFFFFFFFFFFFFFF6F
:10119000FFFFFFFFFFFFFFFFFFFFFFFFFFFFFFFF5F
:1011A000FFFFFFFFFFFFFFFFFFFFFFFFFFFFFFFF4F
:1011B000FFFFFFFFFFFFFFFFFFFFFFFFFFFFFFFF3F
:1011C000FFFFFFFFFFFFFFFFFFFFF7BE9492084105
:1011D000000000000000000000000000000000000F
:1011E00018A30862000000000000000000000000DA
:1011F000000000000000000018A34A8A31860000A9
:1012000000000861EF7DA534000000007BCF528A0A
:10121000086231A739E818C3210484319CD3000047
:1012200020E4FFFFFFFFFFFFFFDF9CF3E71CFFFF52
:10123000FFFFFFFFFFFFFFFFFFFFFFFFFFFFFFFFBE
:10124000FFFFFFFFFFFFFFFFFFFFFFFFFFFFFFFFAE
:10125000FFFFFFFFFFFFFFFFFFFFFFFFFFFFFFFF9E
:10126000FFFFFFFFFFFFFFFFFFFFFFFFFFFFFFFF8E
:10127000FFFFFFFFFFFFFFFFFFFFFFFFFFFFFFFF7E
:10128000FFFFFFFFFFFFFFFFFFFFFFFFFFFFFFFF6E
:10129000FFFFFFFFFFFFFFFFFFFFFFFFFFFFFFFF5E
:1012A000FFFFFFFFFFFFFFFFFFFFFFFFFFFFFFFF4E
:1012B000FFFFFFFFFFFFFFFFFFFFFFFFFFFFFFFF3E
:1012C000FFFFFFFFFFFFFFFFFFFFFFFFFFFFFFFF2E
:1012D000FFFFFFFFFFFFFFFFFFFFFFFFFFFFFFFF1E
:1012E000843010820000000000000000000008218F
:1012F00021044A49632D52AB5AEC6B6D528A3186F8
:101300001082000000000000000042297C104A49C1
:10131000000000004A6973AE0000000000000000F9
:1013200018A30000000000004209B5B76B4D000093
:101330008410FFFFFFFF9CF318C30821F7BEFFFFD7
:10134000FFFFFFFFFFFFFFFFFFFFFFFFFFFFFFFFAD
:10135000FFFFFFFFFFFFFFFFFFFFFFFFFFFFFFFF9D
:10136000FFFFFFFFFFFFFFFFFFFFFFFFFFFFFFFF8D
:10137000FFFFFFFFFFFFFFFFFFFFFFFFFFFFFFFF7D
:10138000FFFFFFFFFFFFFFFFFFFFFFFFFFFFFFFF6D
:10139000FFFFFFFFFFFFFFFFFFFFFFFFFFFFFFFF5D
:1013A000FFFFFFFFFFFFFFFFFFFFFFFFFFFFFFFF4D
:1013B000FFFFFFFFFFFFFFFFFFFFFFFFFFFFFFFF3D
:1013C000FFFFFFFFFFFFFFFFFFFFFFFFFFFFFFFF2D
:1013D000FFFFFFFFFFFFFFFFFFFFFFFFFFFFFFFF1D
:1013E000FFFFFFFFFFFFFFFFFFFFFFFFFFFFFFFF0D
:1013F000FFFFEF7D84300841000000000000000086
:1014000000000821298652EC73D08431AD76BDF8F6
:101410009CD373AF4228000000000021424973AF03
:101420004229000000000000000000000000000051
:1014300000000000000031C78C92A53518A30841B8
:10144000D6BA94B2294500000000BDF7FFFFFFFFA8
:10145000FFFFFFFFFFFFFFFFFFFFFFFFFFFFFFFF9C
:10146000FFFFFFFFFFFFFFFFFFFFFFFFFFFFFFFF8C
:10147000FFFFFFFFFFFFFFFFFFFFFFFFFFFFFFFF7C
:10148000FFFFFFFFFFFFFFFFFFFFFFFFFFFFFFFF6C
:10149000FFFFFFFFFFFFFFFFFFFFFFFFFFFFFFFF5C
:1014A000FFFFFFFFFFFFFFFFFFFFFFFFFFFFFFFF4C
:1014B000FFFFFFFFFFFFFFFFFFFFFFFFFFFFFFFF3C
:1014C000FFFFFFFFFFFFFFFFFFFFFFFFFFFFFFFF2C
:1014D000FFFFFFFFFFFFFFFFFFFFFFFFFFFFFFFF1C
:1014E000FFFFFFFFFFFFFFFFFFFFFFFFFFFFFFFF0C
:1014F000FFFFFFFFFFFFFFFFFFFFFFFFFFFFFFFFFC
:10150000FFFFFFFFFFFFDF1B4A4900000000000054
:1015100000000000000008414A495AEC5AEC8431AE
:10152000AD56BDD7BE185AEC00000000000042299D
:101530007BD04229000000000000000000000000F5
:101540000000000029666B8EA5556B2D000010620F
:1015500039C70000000000006B6DFFFFFFFFFFFFB9
:10156000FFFFFFFFFFFFFFFFFFFFFFFFFFFFFFFF8B
:10157000FFFFFFFFFFFFFFFFFFFFFFFFFFFFFFFF7B
:10158000FFFFFFFFFFFFFFFFFFFFFFFFFFFFFFFF6B
:10159000FFFFFFFFFFFFFFFFFFFFFFFFFFFFFFFF5B
:1015A000FFFFFFFFFFFFFFFFFFFFFFFFFFFFFFFF4B
:1015B000FFFFFFFFFFFFFFFFFFFFFFFFFFFFFFFF3B
:1015C000FFFFFFFFFFFFFFFFFFFFFFFFFFFFFFFF2B
:1015D000FFFFFFFFFFFFFFFFFFFFFFFFFFFFFFFF1B
:1015E000FFFFFFFFFFFFFFFFFFFFFFFFFFFFFFFF0B
:1015F000FFFFFFFFFFFFFFFFFFFFFFFFFFFFFFFFFB
:10160000FFFFFFFFFFFFFFFFFFFFFFFFFFFFFFFFEA
:10161000FFFFFFFFFFFFFFFFFFFF8430108200008E
:101620000000000000000000000031865ACC52ABE0
:1016300073AFA534A514B5B7630C0000000000001B
:101640003A0873F031A7000000000000000000001D
:1016500000000841632D843194D310820000000003
:1016600000000000000000004A6984309CD3B5955A
:10167000D6DAFFFFFFFFFFFFFFFFFFFFFFFFFFFFC8
:10168000FFFFFFFFFFFFFFFFFFFFFFFFFFFFFFFF6A
:10169000FFFFFFFFFFFFFFFFFFFFFFFFFFFFFFFF5A
:1016A000FFFFFFFFFFFFFFFFFFFFFFFFFFFFFFFF4A
:1016B000FFFFFFFFFFFFFFFFFFFFFFFFFFFFFFFF3A
:1016C000FFFFFFFFFFFFFFFFFFFFFFFFFFFFFFFF2A
:1016D000FFFFFFFFFFFFFFFFFFFFFFFFFFFFFFFF1A
:1016E000FFFFFFFFFFFFFFFFFFFFFFFFFFFFFFFF0A
:1016F000FFFFFFFFFFFFFFFFFFFFFFFFFFFFFFFFFA
:10170000FFFFFFFFFFFFFFFFFFFFFFFFFFFFFFFFE9
:10171000FFFFFFFFFFFFFFFFFFFFFFFFFFFFFFFFD9
:10172000FFFFFFFFFFFFFFFFFFFFFFFFE75C1082F0
:1017300000000000000000000000000018E45AEC67
:101740005AEC73CFA5349D14C639528A00000000AC
:101750000000422931A70000000000000000000046
:10176000000042086B6EA5355AEC00000000000036
:101770000000000000000000000000000000000069
:10178000000018C352AA9CD3D6DAFFFFFFFFFFFF69
:10179000FFFFFFFFFFFFFFFFFFFFFFFFFFFFFFFF59
:1017A000FFFFFFFFFFFFFFFFFFFFFFFFFFFFFFFF49
:1017B000FFFFFFFFFFFFFFFFFFFFFFFFFFFFFFFF39
:1017C000FFFFFFFFFFFFFFFFFFFFFFFFFFFFFFFF29
:1017D000FFFFFFFFFFFFFFFFFFFFFFFFFFFFFFFF19
:1017E000FFFFFFFFFFFFFFFFFFFFFFFFFFFFFFFF09
:1017F000FFFFFFFFFFFFFFFFFFFFFFFFFFFFFFFFF9
:10180000FFFFFFFFFFFFFFFFFFFFFFFFFFFFFFFFE8
:10181000FFFFFFFFFFFFFFFFFFFFFFFFFFFFFFFFD8
:10182000FFFFFFFFFFFFFFFFFFFFFFFFFFFFFFFFC8
:10183000FFFFFFFFFFFFFFFFFFFFFFFFFFFFEF7D4A
:10184000318600000000000000000000000010824F
:1018500052AB5AEC73D0A555AD55AD5518E4000008
:101860000000000000200000000000000000000058
:1018700010A3634E6B8EA55520E40000000000000D
:101880000000000010A339E85AEC5B0D52AB42296E
:101890002104000000000000000039E794B2DF1BC3
:1018A000F7BEFFFFFFFFFFFFFFFFFFFFFFFFFFFF91
:1018B000FFFFFFFFFFFFFFFFFFFFFFFFFFFFFFFF38
:1018C000FFFFFFFFFFFFFFFFFFFFFFFFFFFFFFFF28
:1018D000FFFFFFFFFFFFFFFFFFFFFFFFFFFFFFFF18
:1018E000FFFFFFFFFFFFFFFFFFFFFFFFFFFFFFFF08
:1018F000FFFFFFFFFFFFFFFFFFFFFFFFFFFFFFFFF8
:10190000FFFFFFFFFFFFFFFFFFFFFFFFFFFFFFFFE7
:10191000FFFFFFFFFFFFFFFFFFFFFFFFFFFFFFFFD7
:10192000FFFFFFFFFFFFFFFFFFFFFFFFFFFFFFFFC7
:10193000FFFFFFFFFFFFFFFFFFFFFFFFFFFFFFFFB7
:10194000FFFFFFFFDEDB9CF36B6D52AA4A49630C7D
:1019500031860000000000000000086110A30000B4
:1019600000004A6A5B0C6B6E9CF4B5B79CF410A344
:101970000000000000000000000000000000000067
:1019800052AB634D9D146B6E000000000000000020
:10199000108252AB845284526B6E634D6B6E73AF88
:1019A00073D06B8F632D4A8A210500000000000070
:1019B00094B2FFFFFFFFEF9D9D13FFDFFFFFFFFFCF
:1019C000FFFFFFFFFFFFFFFFFFFFFFFFFFFFFFFF27
:1019D000FFFFFFFFFFFFFFFFFFFFFFFFFFFFFFFF17
:1019E000FFFFFFFFFFFFFFFFFFFFFFFFFFFFFFFF07
:1019F000FFFFFFFFFFFFFFFFFFFFFFFFFFFFFFFFF7
:101A0000FFFFFFFFFFFFFFFFFFFFFFFFFFFFFFFFE6
:101A1000FFFFFFFFFFFFFFFFFFFFFFFFFFFFFFFFD6
:101A2000FFFFFFFFFFFFFFFFFFFFFFFFFFFFFFFFC6
:101A3000FFFFFFFFFFFFFFFFFFFFFFFFFFFFFFFFB6
:101A4000FFFFFFFFFFFFFFFFFFFFFFFFFFFFFFFFA6
:101A5000BDF7528A000000000000000000000000F6
:101A600000000000000000000000082131864A4903
:101A70000000000042295ACC632D94D3BE187BCFBE
:101A800000000000000000000000000000002966C7
:101A90005B2D6B6EAD7518C300000000000039E7C8
:101AA0008451AD55B596AD768C52632D6B6E6B8FB0
:101AB000634D52EC4A6A39C82104000018A394927D
:101AC000EF7DFFFFFFFF29452965FFFFFFFFFFFFB8
:101AD000FFFFFFFFFFFFFFFFFFFFFFFFFFFFFFFF16
:101AE000FFFFFFFFFFFFFFFFFFFFFFFFFFFFFFFF06
:101AF000FFFFFFFFFFFFFFFFFFFFFFFFFFFFFFFFF6
:101B0000FFFFFFFFFFFFFFFFFFFFFFFFFFFFFFFFE5
:101B1000FFFFFFFFFFFFFFFFFFFFFFFFFFFFFFFFD5
:101B2000FFFFFFFFFFFFFFFFFFFFFFFFFFFFFFFFC5
:101B3000FFFFFFFFFFFFFFFFFFFFFFFFFFFFFFFFB5
:101B4000FFFFFFFFFFFFFFFFFFFFFFFFFFFFFFFFA5
:101B5000FFFFFFFFFFFFFFFFFFFFFFFFDEFB6B6DE0
:101B60000000000000000000000000000000000075
:101B700000000000000000000000000000214A49B1
:101B8000632D21040021422952AB6B4DA555AD7642
:101B900031860000000000000000000000004A6ADA
:101BA00052CB9CF46B4D0000000000001082AD761B
:101BB000BDF894B384317C106B8F630D422931865C
:101BC00018E408410000000000006B4DEF9DFFFF8E
:101BD000FFFFFFFF5AEB0000630CFFFFFFFFFFFF5B
:101BE000FFFFFFFFFFFFFFFFFFFFFFFFFFFFFFFF05
:101BF000FFFFFFFFFFFFFFFFFFFFFFFFFFFFFFFFF5
:101C0000FFFFFFFFFFFFFFFFFFFFFFFFFFFFFFFFE4
:101C1000FFFFFFFFFFFFFFFFFFFFFFFFFFFFFFFFD4
:101C2000FFFFFFFFFFFFFFFFFFFFFFFFFFFFFFFFC4
:101C3000FFFFFFFFFFFFFFFFFFFFFFFFFFFFFFFFB4
:101C4000FFFFFFFFFFFFFFFFFFFFFFFFFFFFFFFFA4
:101C5000FFFFFFFFFFFFFFFFFFFFFFFFFFFFFFFF94
:101C6000FFFFFFFFFFFFFFFFFFFFB596082100000A
:101C70000000000000000861108218C3212420E445
:101C800010A2082100000000000000000000000079
:101C90003A0973F04A6A31874A8B4A8A73CFB5B7DB
:101CA00094D318C3000000000000000029665AEC1D
:101CB00073AFAD76108200000000000031669CF426
:101CC00073AF632D5AEC4A49296610830000000067
:101CD0000000000000000000AD55FFFFFFFFFFFF08
:101CE000FFFF5AEC00010000630CFFFFFFFFFFFF46
:101CF000FFFFFFFFFFFFFFFFFFFFFFFFFFFFFFFFF4
:101D0000FFFFFFFFFFFFFFFFFFFFFFFFFFFFFFFFE3
:101D1000FFFFFFFFFFFFFFFFFFFFFFFFFFFFFFFFD3
:101D2000FFFFFFFFFFFFFFFFFFFFFFFFFFFFFFFFC3
:101D3000FFFFFFFFFFFFFFFFFFFFFFFFFFFFFFFFB3
:101D4000FFFFFFFFFFFFFFFFFFFFFFFFFFFFFFFFA3
:101D5000FFFFFFFFFFFFFFFFFFFFFFFFFFFFFFFF93
:101D6000FFFFFFFFFFFFFFFFFFFFFFFFFFFFFFFF83
:101D7000FFFFFFFFFFFFFFFF9CF3000000000000DC
:101D8000082029454A8B5AEC73AFA514AD76A555AA
:101D9000A5148C7273AF632D0821000000000000B1
:101DA00000004A6A6B6F5AEC5B0D52CC52CC94D354
:101DB000CE9A39C700000000000008415AEC52CC0E
:101DC000A53573AE0000000000000000294573AF88
:101DD00052CC4229294508410000000000000000C3
:101DE000000000000000C638FFFFFFFFFFFFFFFFFD
:101DF0006B4D00004A490000738EFFFFFFFFFFFF9D
:101E0000FFFFFFFFFFFFFFFFFFFFFFFFFFFFFFFFE2
:101E1000FFFFFFFFFFFFFFFFFFFFFFFFFFFFFFFFD2
:101E2000FFFFFFFFFFFFFFFFFFFFFFFFFFFFFFFFC2
:101E3000FFFFFFFFFFFFFFFFFFFFFFFFFFFFFFFFB2
:101E4000FFFFFFFFFFFFFFFFFFFFFFFFFFFFFFFFA2
:101E5000FFFFFFFFFFFFFFFFFFFFFFFFFFFFFFFF92
:101E6000FFFFFFFFFFFFFFFFFFFFFFFFFFFFFFFF82
:101E7000FFFFFFFFFFFFFFFFFFFFFFFFFFFFFFFF72
:101E8000FFFFFFFFFFFF52AA00000000000018E460
:101E9000630D6B8F632D6BAFA535A55594B394B3CC
:101EA0009CF4A534A555C6397BCF00000000000086
:101EB000000000004A6A632D5B0D6B8E422931A73A
:101EC0004A29108200000000000008414A6A7BD0C5
:101ED000B5762124000000000000000029454A6A70
:101EE00010A300000000000000000000000000003F
:101EF00000000000CE79FFFFFFFFFFFFFFFF5AAB9E
:101F000000006B6E318600007BEFFFFFFFFFFFFFDD
:101F1000FFFFFFFFFFFFFFFFFFFFFFFFFFFFFFFFD1
:101F2000FFFFFFFFFFFFFFFFFFFFFFFFFFFFFFFFC1
:101F3000FFFFFFFFFFFFFFFFFFFFFFFFFFFFFFFFB1
:101F4000FFFFFFFFFFFFFFFFFFFFFFFFFFFFFFFFA1
:101F5000FFFFFFFFFFFFFFFFFFFFFFFFFFFFFFFF91
:101F6000FFFFFFFFFFFFFFFFFFFFFFFFFFFFFFFF81
:101F7000FFFFFFFFFFFFFFFFFFFFFFFFFFFFFFFF71
:101F8000FFFFFFFFFFFFFFFFFFFFFFFFFFFFFFFF61
:101F9000FFFFFFFF6B6D0000000000002966634E2D
:101FA000632D52AB52AB632D6B6E5AEC5AEC5B0D4A
:101FB000632D5B0C5AEC5AEC84112966000000007A
:101FC0000000000000205AEC6B8F31A700000000D9
:101FD0000000000000000000000000002125B59670
:101FE0007BCF00000000000000000000084100005E
:101FF00000000000000000000000000000000000E1
:102000000820AD55FFFFE75DCE798C7121040000FB
:102010005B0D6B8F106200008430FFFFFFFFFFFF3E
:10202000FFFFFFFFFFFFFFFFFFFFFFFFFFFFFFFFC0
:10203000FFFFFFFFFFFFFFFFFFFFFFFFFFFFFFFFB0
:10204000FFFFFFFFFFFFFFFFFFFFFFFFFFFFFFFFA0
:10205000FFFFFFFFFFFFFFFFFFFFFFFFFFFFFFFF90
:10206000FFFFFFFFFFFFFFFFFFFFFFFFFFFFFFFF80
:10207000FFFFFFFFFFFFFFFFFFFFFFFFFFFFFFFF70
:10208000FFFFFFFFFFFFFFFFFFFFFFFFFFFFFFFF60
:10209000FFFFFFFFFFFFFFFFFFFFFFFFFFFFFFFF50
:1020A000FFFF528A0000000008624A6A6B8F634D8E
:1020B000632D6B6E634E5B0D5AEC5B0D4A8B29668C
:1020C00010620021084100000841084100000000A2
:1020D00000000000000018A32945000000000000D7
:1020E00000000000000018C32125000000207BF044
:1020F0003186000000000000000000000000000029
:1021000000000000000000000000000000000000CF
:1021100000004A4920E400000000000008415ACCB9
:102120006BAF4A6A002000009492FFFFFFFFFFFFA1
:10213000FFFFFFFFFFFFFFFFFFFFFFFFFFFFFFFFAF
:10214000FFFFFFFFFFFFFFFFFFFFFFFFFFFFFFFF9F
:10215000FFFFFFFFFFFFFFFFFFFFFFFFFFFFFFFF8F
:10216000FFFFFFFFFFFFFFFFFFFFFFFFFFFFFFFF7F
:10217000FFFFFFFFFFFFFFFFFFFFFFFFFFFFFFFF6F
:10218000FFFFFFFFFFFFFFFFFFFFFFFFFFFFFFFF5F
:10219000FFFFFFFFFFFFFFFFFFFFFFFFFFFFFFFF4F
:1021A000FFFFFFFFFFFFFFFFFFFFFFFFFFFFFFFF3F
:1021B00052AA0000000010824A8A636E52AB422984
:1021C0004229420839E839C731C7212400000000FC
:1021D00029455AEC73AE7BCF73AE738E6B8E632C36
:1021E00052AA528A420800000000000000000000CD
:1021F0000000000021255B0D6B6E1062000008419D
:1022000000000000000000000000000000000000CE
:1022100000000000000000000000000000000000BE
:10222000000100000000000018C342296B8F632EDC
:10223000632D2966000000009CF3FFFFFFFFFFFFF6
:10224000FFFFFFFFFFFFFFFFFFFFFFFFFFFFFFFF9E
:10225000FFFFFFFFFFFFFFFFFFFFFFFFFFFFFFFF8E
:10226000FFFFFFFFFFFFFFFFFFFFFFFFFFFFFFFF7E
:10227000FFFFFFFFFFFFFFFFFFFFFFFFFFFFFFFF6E
:10228000FFFFFFFFFFFFFFFFFFFFFFFFFFFFFFFF5E
:10229000FFFFFFFFFFFFFFFFFFFFFFFFFFFFFFFF4E
:1022A000FFFFFFFFFFFFFFFFFFFFFFFFFFFFFFFF3E
:1022B000FFFFFFFFFFFFFFFFFFFFFFFFFFFF630CBD
:1022C000000000000000086118A308410821000078
:1022D00000000000000000000000000031A6634E76
:1022E000A556C639B5B7AD76A5359D14A535A55506
:1022F000AD96B5B752AB0000000000000000000032
:10230000082139C85B0D6B6EAD76528A0000000063
:1023100000000000000000000000000000000000BD
:102320000000000000000000000000001082632D8B
:10233000632D630D6B4D7BF08C5284525B0D5AEC18
:102340005AEC106200000000AD55FFFFFFFFFFFFD9
:10235000FFFFFFFFFFFFFFFFFFFFFFFFFFFFFFFF8D
:10236000FFFFFFFFFFFFFFFFFFFFFFFFFFFFFFFF7D
:10237000FFFFFFFFFFFFFFFFFFFFFFFFFFFFFFFF6D
:10238000FFFFFFFFFFFFFFFFFFFFFFFFFFFFFFFF5D
:10239000FFFFFFFFFFFFFFFFFFFFFFFFFFFFFFFF4D
:1023A000FFFFFFFFFFFFFFFFFFFFFFFFFFFFFFFF3D
:1023B000FFFFFFFFFFFFFFFFFFFFFFFFFFFFFFFF2D
:1023C000FFFFFFFFFFFFFFFFFFFFFFFF42280000AF
:1023D00000000000000000000000000000000000FD
:1023E000000000000000000008415B0C5B2D7C3108
:1023F000A5357BF06B4D52CB4A6A5AEC630D5B0DF1
:1024000052AB1083000000000000000000001082AA
:1024100052CC632D6B6E9D14B5B77BF000000000AD
:102420000000000031A742293186294518E4000048
:102430000000000000000000000000008C72BDD70A
:10244000A514A514A514A535B5B7845152AB6B6E70
:1024500039E8000000000000BDF7FFFFFFFFFFFFAD
:10246000FFFFFFFFFFFFFFFFFFFFFFFFFFFFFFFF7C
:10247000FFFFFFFFFFFFFFFFFFFFFFFFFFFFFFFF6C
:10248000FFFFFFFFFFFFFFFFFFFFFFFFFFFFFFFF5C
:10249000FFFFFFFFFFFFFFFFFFFFFFFFFFFFFFFF4C
:1024A000FFFFFFFFFFFFFFFFFFFFFFFFFFFFFFFF3C
:1024B000FFFFFFFFFFFFFFFFFFFFFFFFFFFFFFFF2C
:1024C000FFFFFFFFFFFFFFFFFFFFFFFFFFFFFFFF1C
:1024D000FFFFFFFFFFFFFFFFFFFF6B4D000000004E
:1024E00000000000000000000000000000000000EC
:1024F00000000000000000004A6A6B8E4AAB73AF18
:102500006B4D4229422952CC6B6E634D4209212505
:102510000841000000000000000000002104634E9C
:10252000632D632D9CD49CF494929CD320E40000F2
:1025300000000841634E73D06B6E6B4E6B4E7BCFC9
:1025400018C3000000000000000039E7BDF89CF34C
:102550009D14A555A555A5359492632D634E632D05
:102560000862000000000000CE79FFFFFFFFFFFFC0
:10257000FFFFFFFFFFFFFFFFFFFFFFFFFFFFFFFF6B
:10258000FFFFFFFFFFFFFFFFFFFFFFFFFFFFFFFF5B
:10259000FFFFFFFFFFFFFFFFFFFFFFFFFFFFFFFF4B
:1025A000FFFFFFFFFFFFFFFFFFFFFFFFFFFFFFFF3B
:1025B000FFFFFFFFFFFFFFFFFFFFFFFFFFFFFFFF2B
:1025C000FFFFFFFFFFFFFFFFFFFFFFFFFFFFFFFF1B
:1025D000FFFFFFFFFFFFFFFFFFFFFFFFFFFFFFFF0B
:1025E000FFFFFFFFFFFFDF1B31A6000000000841D7
:1025F000210431A64A495AEB6B4D6B6D738E8410E2
:1026000018C30000000031A7634E5AEC73AF39C8FD
:1026100021455B2D632D632D31A610620000000063
:1026200000000000000000000000296673AF634D49
:10263000634E9CF49CF494D36B6E31860862000068
:102640000000210473AF634E636E52EC630DBDF85E
:102650008C7200200000000008618C729CF4845190
:102660008C51841073D073CF632D5B0D6BAF3187AA
:102670000000000000000020E73CFFFFFFFFFFFF1D
:10268000FFFFFFFFFFFFFFFFFFFFFFFFFFFFFFFF5A
:10269000FFFFFFFFFFFFFFFFFFFFFFFFFFFFFFFF4A
:1026A000FFFFFFFFFFFFFFFFFFFFFFFFFFFFFFFF3A
:1026B000FFFFFFFFFFFFFFFFFFFFFFFFFFFFFFFF2A
:1026C000FFFFFFFFFFFFFFFFFFFFFFFFFFFFFFFF1A
:1026D000FFFFFFFFFFFFFFFFFFFFFFFFFFFFFFFF0A
:1026E000FFFFFFFFFFFFFFFFFFFFFFFFFFFFFFFFFA
:1026F000FFFFFFFFFFFFCE596B4DAD75D69AE75C2C
:10270000FFFFFFFFFFFFFFFFFFFFFFFFFFFFEF9D4B
:1027100010820000190473D06B6E5ACC3186000011
:10272000212573CF6B8F21250000000000000000E1
:102730000000000000000000298673D0632D5ACCF1
:1027400094D3AD55A535632D0000000000000000B6
:10275000000018C331A7212531C75AEC6B8F9D1497
:10276000BDD731860000000039C77C115B0D5B0DC1
:102770005AEC52AB52CC5B0D6B8F6B8E3A0900005A
:1027800000000000000018C3FFFFFFFFFFFFFFFF76
:10279000FFFFFFFFFFFFFFFFFFFFFFFFFFFFFFFF49
:1027A000FFFFFFFFFFFFFFFFFFFFFFFFFFFFFFFF39
:1027B000FFFFFFFFFFFFFFFFFFFFFFFFFFFFFFFF29
:1027C000FFFFFFFFFFFFFFFFFFFFFFFFFFFFFFFF19
:1027D000FFFFFFFFFFFFFFFFFFFFFFFFFFFFFFFF09
:1027E000FFFFFFFFFFFFFFFFFFFFFFFFFFFFFFFFF9
:1027F000FFFFFFFFFFFFFFFFFFFFFFFFFFFFFFFFE9
:10280000FFFFFFFFFFFFFFFFFFFFFFFFFFFFFFFFD8
:10281000FFFFFFFFFFFFFFFFFFFFFFFFDEDB108279
:10282000000018A3630D4AAB29660821000010A31D
:102830006B8E52CC318600000000000000000000CA
:10284000000000000000296573D0634E52CC7C115B
:10285000A535B5B76B4D00000000296620E40000E7
:10286000000000000000000000002105634E94B34A
:10287000BDD76B6E0000000052AB6B8F632D632DD4
:10288000634E6B6E634E52CC422929450000000016
:1028900000000000000052AAFFFFFFFFFFFFFFFF44
:1028A000FFFFFFFFFFFFFFFFFFFFFFFFFFFFFFFF38
:1028B000FFFFFFFFFFFFFFFFFFFFFFFFFFFFFFFF28
:1028C000FFFFFFFFFFFFFFFFFFFFFFFFFFFFFFFF18
:1028D000FFFFFFFFFFFFFFFFFFFFFFFFFFFFFFFF08
:1028E000FFFFFFFFFFFFFFFFFFFFFFFFFFFFFFFFF8
:1028F000FFFFFFFFFFFFFFFFFFFFFFFFFFFFFFFFE8
:10290000FFFFFFFFFFFFFFFFFFFFFFFFFFFFFFFFD7
:10291000FFFFFFFFFFFFFFFFFFFFFFFFFFFFFFFFC7
:10292000FFFFFFFFFFFFFFFFFFFFEF9D1082000093
:102930000020296621250000000000000000424917
:102940004A4A0841000000000000000000000000AA
:102950000000000018E473AF636E52CC6B4EA535D7
:10296000AD55738E000000004229636E52CC00000A
:1029700000000062000000000000000031C77C1071
:10298000A555A51410820000214539E8298629663D
:102990002125210418C308210000000000000000C8
:1029A000000000000000DEFBFFFFFFFFFFFFFFFF56
:1029B000FFFFFFFFFFFFFFFFFFFFFFFFFFFFFFFF27
:1029C000FFFFFFFFFFFFFFFFFFFFFFFFFFFFFFFF17
:1029D000FFFFFFFFFFFFFFFFFFFFFFFFFFFFFFFF07
:1029E000FFFFFFFFFFFFFFFFFFFFFFFFFFFFFFFFF7
:1029F000FFFFFFFFFFFFFFFFFFFFFFFFFFFFFFFFE7
:102A0000FFFFFFFFFFFFFFFFFFFFFFFFFFFFFFFFD6
:102A1000FFFFFFFFFFFFFFFFFFFFFFFFFFFFFFFFC6
:102A2000FFFFFFFFFFFFFFFFFFFFFFFFFFFFFFFFB6
:102A3000FFFFFFFFFFFFFFFFFFFF630C0000000031
:102A400000000000000000000000000008211083CA
:102A5000000000000000000000000841002000000D
:102A6000000000004A8A73CF5B0D52CB7C10B5B7D3
:102A70007BCF0000000031E852EC52CC73CF736C76
:102A80008B2BB3EE51A600000000000010A35B2DBD
:102A90008472BDF841E80000000000000000000062
:102AA0000000000000000000000000000000000026
:102AB00000000000B596FFFFFFFFFFFFFFFFFFFFD5
:102AC000FFFFFFFFFFFFFFFFFFFFFFFFFFFFFFFF16
:102AD000FFFFFFFFFFFFFFFFFFFFFFFFFFFFFFFF06
:102AE000FFFFFFFFFFFFFFFFFFFFFFFFFFFFFFFFF6
:102AF000FFFFFFFFFFFFFFFFFFFFFFFFFFFFFFFFE6
:102B0000FFFFFFFFFFFFFFFFFFFFFFFFFFFFFFFFD5
:102B1000FFFFFFFFFFFFFFFFFFFFFFFFFFFFFFFFC5
:102B2000FFFFFFFFFFFFFFFFFFFFFFFFFFFFFFFFB5
:102B3000FFFFFFFFFFFFFFFFFFFFFFFFFFFFFFFFA5
:102B4000FFFFFFFFFFFFFFFFBDD7000000000000F9
:102B50000000000000000000000000000000000075
:102B600000000000000000002125420800000000D5
:102B7000000008415AEC5B2D632D5AEC94B294B3DB
:102B800000000000736EB555CDF6E697FF19FFFD06
:102B9000FFFCFDF4FC8F8AC90000000000003A0928
:102BA00073CFB5D75AEC0000000000000000000011
:102BB0000000000000000000000000000000000015
:102BC0000000B5B6FFFFFFFFFFFFFFFFFFFFFFFFA6
:102BD000FFFFFFFFFFFFFFFFFFFFFFFFFFFFFFFF05
:102BE000FFFFFFFFFFFFFFFFFFFFFFFFFFFFFFFFF5
:102BF000FFFFFFFFFFFFFFFFFFFFFFFFFFFFFFFFE5
:102C0000FFFFFFFFFFFFFFFFFFFFFFFFFFFFFFFFD4
:102C1000FFFFFFFFFFFFFFFFFFFFFFFFFFFFFFFFC4
:102C2000FFFFFFFFFFFFFFFFFFFFFFFFFFFFFFFFB4
:102C3000FFFFFFFFFFFFFFFFFFFFFFFFFFFFFFFFA4
:102C4000FFFFFFFFFFFFFFFFFFFFFFFFFFFFFFFF94
:102C5000FFFFFFFFFFFFFFFF1082000000000000EA
:102C60000000000000000000000000000000000064
:102C7000000000000000082173CF4229000000007E
:102C800000002104632D52EC5B0D5B0D9CF40041B0
:102C900020C3D698FFDCFFDCFFBBFF7AFF19FF19CA
:102CA000FFFFFFFFED52FCCF49A6000000002124EA
:102CB0006B8FADB752AB00000000000000000000B9
:102CC0000000000000000000000000000000000004
:102CD000C618FFFFFFFFFFFFFFFFFFFFFFFFFFFF24
:102CE000FFFFFFFFFFFFFFFFFFFFFFFFFFFFFFFFF4
:102CF000FFFFFFFFFFFFFFFFFFFFFFFFFFFFFFFFE4
:102D0000FFFFFFFFFFFFFFFFFFFFFFFFFFFFFFFFD3
:102D1000FFFFFFFFFFFFFFFFFFFFFFFFFFFFFFFFC3
:102D2000FFFFFFFFFFFFFFFFFFFFFFFFFFFFFFFFB3
:102D3000FFFFFFFFFFFFFFFFFFFFFFFFFFFFFFFFA3
:102D4000FFFFFFFFFFFFFFFFFFFFFFFFFFFFFFFF93
:102D5000FFFFFFFFFFFFFFFFFFFFFFFFFFFFFFFF83
:102D6000FFFFFFFFFFFF62EC00000000000000001B
:102D70000000000000000000000000000000000053
:102D800000000000084152AB52AB18A30000000045
:102D900000004229632E5B2D52AB73AF2166080001
:102DA000F73AFFFFFF19FEF9FEF9FEF9FEF9FEF80A
:102DB000FF3BFFFFF7DEED31DBEC20C30000082115
:102DC0005ACC8C922104000000000000000000009A
:102DD0000000000000000000000000000000AD75D1
:102DE000FFFFFFFFFFFFFFFFFFFFFFFFFFFFFFFFF3
:102DF000FFFFFFFFFFFFFFFFFFFFFFFFFFFFFFFFE3
:102E0000FFFFFFFFFFFFFFFFFFFFFFFFFFFFFFFFD2
:102E1000FFFFFFFFFFFFFFFFFFFFFFFFFFFFFFFFC2
:102E2000FFFFFFFFFFFFFFFFFFFFFFFFFFFFFFFFB2
:102E3000FFFFFFFFFFFFFFFFFFFFFFFFFFFFFFFFA2
:102E4000FFFFFFFFFFFFFFFFFFFFFFFFFFFFFFFF92
:102E5000FFFFFFFFFFFFFFFFFFFFFFFFFFFFFFFF82
:102E6000FFFFFFFFFFFFFFFFFFFFFFFFFFFFFFFF72
:102E7000FFFFFFFFDF1B000000000000000000005C
:102E80000000000000000000000000000000000042
:102E9000000000204A494229000000000000000014
:102EA00000204A8A636E5AEC6B4E21660000E6777A
:102EB000FFFEFED8FEF9FEF9FEF9FEF9FEF9FEF975
:102EC000FED8F77DFFFFF75CFD10AB6B0000000044
:102ED0004A8A4229000000000000000000000000B3
:102EE000000000000000000000002104EF5DFFFF73
:102EF000FFFFFFFFFFFFFFFFFFFFFFFFFFFFFFFFE2
:102F0000FFFFFFFFFFFFFFFFFFFFFFFFFFFFFFFFD1
:102F1000FFFFFFFFFFFFFFFFFFFFFFFFFFFFFFFFC1
:102F2000FFFFFFFFFFFFFFFFFFFFFFFFFFFFFFFFB1
:102F3000FFFFFFFFFFFFFFFFFFFFFFFFFFFFFFFFA1
:102F4000FFFFFFFFFFFFFFFFFFFFFFFFFFFFFFFF91
:102F5000FFFFFFFFFFFFFFFFFFFFFFFFFFFFFFFF81
:102F6000FFFFFFFFFFFFFFFFFFFFFFFFFFFFFFFF71
:102F7000FFFFFFFFFFFFFFFFFFFFFFFFFFFFFFFF61
:102F8000FFFFFFFF5AEB0000000000000000000000
:102F90000000000000000000000000000000000031
:102FA0000000084118E400000000000000000000DC
:102FB00008415B0C632D5B0D4A8B00009B0AFFFCF4
:102FC000FF3AFEF9FEF9FEF9FEF9FEF9FEF9FEF907
:102FD000FED8F75BF7DFFFFFFE97E40C104100001F
:102FE0005AEC00004249949200000000108218C37D
:102FF000296631C7296631A7214552AACE79D6BAAA
:10300000FFFFFFFFFFFFFFFFFFFFFFFFFFFFFFFFD0
:10301000FFFFFFFFFFFFFFFFFFFFFFFFFFFFFFFFC0
:10302000FFFFFFFFFFFFFFFFFFFFFFFFFFFFFFFFB0
:10303000FFFFFFFFFFFFFFFFFFFFFFFFFFFFFFFFA0
:10304000FFFFFFFFFFFFFFFFFFFFFFFFFFFFFFFF90
:10305000FFFFFFFFFFFFFFFFFFFFFFFFFFFFFFFF80
:10306000FFFFFFFFFFFFFFFFFFFFFFFFFFFFFFFF70
:10307000FFFFFFFFFFFFFFFFFFFFFFFFFFFFFFFF60
:10308000FFFFFFFFFFFFFFFFFFFFFFFFFFFFFFFF50
:10309000FFFFC63800000000000000000000000034
:1030A0000000000000000000000000000000000020
:1030B0000000000000000000000000000000000010
:1030C00018E3634E5AED630C00004943FD72FE970E
:1030D000FF5AFEF9FEF9FEF9FEF9FEF9FF19FF1994
:1030E000FED8FF1AFFFFFFFF93EEA2C8208108A3BE
:1030F00032090000C4F2DEDA00000000082010628D
:1031000029454A6A632D7C116B8F4A6A31C739E8B9
:1031100052AB8430E73CFFFFFFFFFFFFFFFFFFFFE5
:10312000FFFFFFFFFFFFFFFFFFFFFFFFFFFFFFFFAF
:10313000FFFFFFFFFFFFFFFFFFFFFFFFFFFFFFFF9F
:10314000FFFFFFFFFFFFFFFFFFFFFFFFFFFFFFFF8F
:10315000FFFFFFFFFFFFFFFFFFFFFFFFFFFFFFFF7F
:10316000FFFFFFFFFFFFFFFFFFFFFFFFFFFFFFFF6F
:10317000FFFFFFFFFFFFFFFFFFFFFFFFFFFFFFFF5F
:10318000FFFFFFFFFFFFFFFFFFFFFFFFFFFFFFFF4F
:10319000FFFFFFFFFFFFFFFFFFFFFFFFFFFFFFFF3F
:1031A000FFFF39E700000000000000000000000001
:1031B000000000000000000029451062000000002F
:1031C00000000000000000000000000000000000FF
:1031D0002124632D6B8E18E40000D3ECEC6EFEB856
:1031E000FF5AFEF9FEF9FEF9FEF9FF3AFF19F6B8AB
:1031F000FF19FFFFC61808C400006A061841192508
:1032000000015923FD31C63810A300000000000062
:10321000000000000020292542294A6A52AB424999
:103220002125002100004A69D69AFFFFFFFFFFFF1A
:10323000FFFFFFFFFFFFFFFFFFFFFFFFFFFFFFFF9E
:10324000FFFFFFFFFFFFFFFFFFFFFFFFFFFFFFFF8E
:10325000FFFFFFFFFFFFFFFFFFFFFFFFFFFFFFFF7E
:10326000FFFFFFFFFFFFFFFFFFFFFFFFFFFFFFFF6E
:10327000FFFFFFFFFFFFFFFFFFFFFFFFFFFFFFFF5E
:10328000FFFFFFFFFFFFFFFFFFFFFFFFFFFFFFFF4E
:10329000FFFFFFFFFFFFFFFFFFFFFFFFFFFFFFFF3E
:1032A000FFFFFFFFFFFFFFFFFFFFFFFFFFFFFFFF2E
:1032B000CE590000000000000000000000000000E7
:1032C000000041E88C51CE9994D2086100000000C2
:1032D000000000000000598661C6082000000000C0
:1032E00029456BAF424A00009AA8FD51C44EE6152D
:1032F000FF7BFF3AFEF9FEF9FF3AEEB8DDF5F7196C
:10330000FFFF947000002800C2C8A38C00200000BA
:103310000800DCF0FED9BDD710824A8A420929662E
:10332000294510A2000000000000000000212945EE
:1033300073AF738E294500002965AD55FFFFFFFF70
:10334000FFFFFFFFFFFFFFFFFFFFFFFFFFFFFFFF8D
:10335000FFFFFFFFFFFFFFFFFFFFFFFFFFFFFFFF7D
:10336000FFFFFFFFFFFFFFFFFFFFFFFFFFFFFFFF6D
:10337000FFFFFFFFFFFFFFFFFFFFFFFFFFFFFFFF5D
:10338000FFFFFFFFFFFFFFFFFFFFFFFFFFFFFFFF4D
:10339000FFFFFFFFFFFFFFFFFFFFFFFFFFFFFFFF3D
:1033A000FFFFFFFFFFFFFFFFFFFFFFFFFFFFFFFF2D
:1033B000FFFFFFFFFFFFFFFFFFFFFFFFFFFFFFFF1D
:1033C0007BEF0000000000000000000021247BCF04
:1033D000D6DAFFFFFFFFFFFF18A300000000000088
:1033E0000000192493AEDB8BA2A9000000000000AE
:1033F00039C7738F00003103FD51FE34FFBBDE3649
:10340000D5F5EE97FF3AFF39F6D8CDD5F73AFFFF5D
:10341000734D0000A596FD12FAC75248000008003F
:103420008184F6D9FFFF7BAF000029866B4E73AF16
:10343000634D52CC4A6A4A6939C7086100000000EE
:1034400062EBBDF7FFFFFFFFF79ED69AFFFFFFFF7E
:10345000FFFFFFFFFFFFFFFFFFFFFFFFFFFFFFFF7C
:10346000FFFFFFFFFFFFFFFFFFFFFFFFFFFFFFFF6C
:10347000FFFFFFFFFFFFFFFFFFFFFFFFFFFFFFFF5C
:10348000FFFFFFFFFFFFFFFFFFFFFFFFFFFFFFFF4C
:10349000FFFFFFFFFFFFFFFFFFFFFFFFFFFFFFFF3C
:1034A000FFFFFFFFFFFFFFFFFFFFFFFFFFFFFFFF2C
:1034B000FFFFFFFFFFFFFFFFFFFFFFFFFFFFFFFF1C
:1034C000FFFFFFFFFFFFFFFFFFFFFFFFFFFFFFFF0C
:1034D00029650000000018C34A69AD75FFFFFFFFB2
:1034E000FFFFFFFFFFFF4228000000000000000078
:1034F00021049514A472BAA77A0600000000000007
:103500004A8A39C70000108230A27A27E699FFFF65
:10351000FF7AEE97EED9FF19F6B8FFFDFFDD62885E
:103520000000B58EFFFFE38CB1830041000079A558
:10353000CB8BFFFFF7BE18A200000000084139C77F
:1035400052EC634E5B0D8451AD758C51632C21247C
:1035500000000000528AB5B6FFFFFFFFFFFFFFFF2C
:10356000FFFFFFFFFFFFFFFFFFFFFFFFFFFFFFFF6B
:10357000FFFFFFFFFFFFFFFFFFFFFFFFFFFFFFFF5B
:10358000FFFFFFFFFFFFFFFFFFFFFFFFFFFFFFFF4B
:10359000FFFFFFFFFFFFFFFFFFFFFFFFFFFFFFFF3B
:1035A000FFFFFFFFFFFFFFFFFFFFFFFFFFFFFFFF2B
:1035B000FFFFFFFFFFFFFFFFFFFFFFFFFFFFFFFF1B
:1035C000FFFFFFFFFFFFFFFFFFFFFFFFFFFFFFFF0B
:1035D000FFFFFFFFFFFFFFFFFFFFFFFFFFFFB596AE
:1035E000000031669CD3F7BEFFFFFFFFFFFFFFFF28
:1035F000FFFFFFFF9CF300000000000000004228D6
:10360000AD55AD968431B32A8A260000000008210A
:1036100039E800004000D46F7C7239C6188039E95F
:10362000AD13FFFEFFDEEE77E5F5A44F528C6B681D
:10363000AC01CD90BD35DBCC510300006A89AB6B8A
:10364000F77CF7BD52EC318700000000000000005D
:10365000082121454A8A5AEC8410AD56AD96A5340E
:103660007C1029450000000018C3E73CFFFFFFFF66
:10367000FFFFFFFFFFFFFFFFFFFFFFFFFFFFFFFF5A
:10368000FFFFFFFFFFFFFFFFFFFFFFFFFFFFFFFF4A
:10369000FFFFFFFFFFFFFFFFFFFFFFFFFFFFFFFF3A
:1036A000FFFFFFFFFFFFFFFFFFFFFFFFFFFFFFFF2A
:1036B000FFFFFFFFFFFFFFFFFFFFFFFFFFFFFFFF1A
:1036C000FFFFFFFFFFFFFFFFFFFFFFFFFFFFFFFF0A
:1036D000FFFFFFFFFFFFFFFFFFFFFFFFFFFFFFFFFA
:1036E000FFFFFFFFFFFFFFFFFFFFFFFFFFFF94D282
:1036F0007BEFFFFFFFFFFFFFFFFFFFFFFFFFFFFF6E
:10370000FFFFFFFF29650000000000004229B5B758
:103710008C525AEC3A288247A268082100001062B5
:1037200010A300009860FBEDFFFFFFFFACA231206B
:103730004A445AECB534EED9BD5362688B8DCDB591
:10374000938B9BCFC532CC6E00008493FF9DFED837
:10375000FFFF5228000073AF18A300000000000014
:10376000000010A339C852AB52CB8C92AD76A53570
:10377000A5559D1418C300000000630CFFFFFFFF58
:10378000FFFFFFFFFFFFFFFFFFFFFFFFFFFFFFFF49
:10379000FFFFFFFFFFFFFFFFFFFFFFFFFFFFFFFF39
:1037A000FFFFFFFFFFFFFFFFFFFFFFFFFFFFFFFF29
:1037B000FFFFFFFFFFFFFFFFFFFFFFFFFFFFFFFF19
:1037C000FFFFFFFFFFFFFFFFFFFFFFFFFFFFFFFF09
:1037D000FFFFFFFFFFFFFFFFFFFFFFFFFFFFFFFFF9
:1037E000FFFFFFFFFFFFFFFFFFFFFFFFFFFFFFFFE9
:1037F000FFFFFFFFFFFFFFFFFFFFFFFFFFFFFFFFD9
:10380000FFFFFFFFFFFFFFFFFFFFFFFFFFFFFFFFC8
:10381000FFFFAD55000000000000082139E73186A8
:1038200008210000000038E3D38B2882000000212B
:10383000000030E3DB8AC9E5C4B1BD13C46CD54ACE
:10384000CD2F938DC553EED8E6B8FFFDDD10B32A1A
:10385000E657EF1AEE9769A58410FFFFF79DE6B8CB
:1038600083AD0000000052AB4249000000000000A0
:10387000000021254A4A5B0D52CC52CB8410A5147E
:103880009CF494B373CF082100000000E71CFFFFF5
:10389000FFFFFFFFFFFFFFFFFFFFFFFFFFFFFFFF38
:1038A000FFFFFFFFFFFFFFFFFFFFFFFFFFFFFFFF28
:1038B000FFFFFFFFFFFFFFFFFFFFFFFFFFFFFFFF18
:1038C000FFFFFFFFFFFFFFFFFFFFFFFFFFFFFFFF08
:1038D000FFFFFFFFFFFFFFFFFFFFFFFFFFFFFFFFF8
:1038E000FFFFFFFFFFFFFFFFFFFFFFFFFFFFFFFFE8
:1038F000FFFFFFFFFFFFFFFFFFFFFFFFFFFFFFFFD8
:10390000FFFFFFFFFFFFFFFFFFFFFFFFFFFFFFFFC7
:10391000FFFFFFFFFFFFFFFFFFFFFFFFFFFFFFFFB7
:10392000FFFF10A2000000000000000000000000E7
:103930000000000000000020C34A7A0600000000DA
:1039400000006985CBABC38BA225AB2AAC71BD143B
:10395000CD53E615FF7BFF7BFF5AFF3BE532ED724F
:10396000FFBCFFDCE5D4BCF1FFFFFFFFDE1720004A
:103970000000000000002945634E18A33924000010
:1039800000000000000029665AEC5AED424A634DDF
:10399000A51494B2A51441E800000000738EFFFF47
:1039A000FFFFFFFFFFFFFFFFFFFFFFFFFFFFFFFF27
:1039B000FFFFFFFFFFFFFFFFFFFFFFFFFFFFFFFF17
:1039C000FFFFFFFFFFFFFFFFFFFFFFFFFFFFFFFF07
:1039D000FFFFFFFFFFFFFFFFFFFFFFFFFFFFFFFFF7
:1039E000FFFFFFFFFFFFFFFFFFFFFFFFFFFFFFFFE7
:1039F000FFFFFFFFFFFFFFFFFFFFFFFFFFFFFFFFD7
:103A0000FFFFFFFFFFFFFFFFFFFFFFFFFFFFFFFFC6
:103A1000FFFFFFFFFFFFFFFFFFFFFFFFFFFFFFFFB6
:103A2000FFFFFFFFFFFFFFFFFFFFFFFFFFFFFFFFA6
:103A3000A5140000000000000000000000000000CD
:103A400039C742281062000020A24965000000002A
:103A50002082A2879226C36BE4D0FF39EF19EE973C
:103A6000FEF9F6D8FF1AF6F9F6D8FEF9FF1AFF5A52
:103A7000FF3AFEF8FF19FF9BFF5BFFFFDDF610002A
:103A800000000000000018C45B2D00216A07AB6C29
:103A9000000000000000000010824229632D4A8AC5
:103AA0005B0C94B29CF37BEF084100002104FFFF04
:103AB000FFFFFFFFFFFFFFFFFFFFFFFFFFFFFFFF16
:103AC000FFFFFFFFFFFFFFFFFFFFFFFFFFFFFFFF06
:103AD000FFFFFFFFFFFFFFFFFFFFFFFFFFFFFFFFF6
:103AE000FFFFFFFFFFFFFFFFFFFFFFFFFFFFFFFFE6
:103AF000FFFFFFFFFFFFFFFFFFFFFFFFFFFFFFFFD6
:103B0000FFFFFFFFFFFFFFFFFFFFFFFFFFFFFFFFC5
:103B1000FFFFFFFFFFFFFFFFFFFFFFFFFFFFFFFFB5
:103B2000FFFFFFFFFFFFFFFFFFFFFFFFFFFFFFFFA5
:103B3000FFFFFFFFFFFFFFFFFFFFFFFFFFFFFFFF95
:103B4000210400000000000029656B4DAD75DEFB0F
:103B5000A534528A08410000000000000000000067
:103B60004103D38B9A46BB29ED31FF3BFF5BFF3A04
:103B7000FF19FF3AFEF9A3ACDE16FF7BFF3AF6F918
:103B8000EE97FF19FF19FED8FF7BFFFFCCF218005C
:103B9000000000000000000052AB19050820FD7273
:103BA00092E9000000000000000000002125530CF5
:103BB0004ACB4ACB7C71A55539E700000000D6BA44
:103BC000FFFFFFFFFFFFFFFFFFFFFFFFFFFFFFFF05
:103BD000FFFFFFFFFFFFFFFFFFFFFFFFFFFFFFFFF5
:103BE000FFFFFFFFFFFFFFFFFFFFFFFFFFFFFFFFE5
:103BF000FFFFFFFFFFFFFFFFFFFFFFFFFFFFFFFFD5
:103C0000FFFFFFFFFFFFFFFFFFFFFFFFFFFFFFFFC4
:103C1000FFFFFFFFFFFFFFFFFFFFFFFFFFFFFFFFB4
:103C2000FFFFFFFFFFFFFFFFFFFFFFFFFFFFFFFFA4
:103C3000FFFFFFFFFFFFFFFFFFFFFFFFFFFFFFFF94
:103C4000FFFFFFFFFFFFFFFFFFFFFFFFFFFFD69A12
:103C5000000018C37BEFCE99FFFFFFFFFFFF6B4D06
:103C60000000000000000000000000000000000054
:103C7000000030A251A6A309EC6DF657FF7BFEF9B8
:103C8000FEF9FF9CE5D57164D5B4F75BFF7BD5D514
:103C9000BD32FF5AFF19FEB8FFFFEF7DB32A18208F
:103CA0000000000018C3000031A64A8A0000AB2AB9
:103CB000FD72CD94A4B18BCE7BEE3247000000A202
:103CC00052AB526A528B8C92534C0000000084100D
:103CD000FFFFFFFFFFFFFFFFFFFFFFFFFFFFFFFFF4
:103CE000FFFFFFFFFFFFFFFFFFFFFFFFFFFFFFFFE4
:103CF000FFFFFFFFFFFFFFFFFFFFFFFFFFFFFFFFD4
:103D0000FFFFFFFFFFFFFFFFFFFFFFFFFFFFFFFFC3
:103D1000FFFFFFFFFFFFFFFFFFFFFFFFFFFFFFFFB3
:103D2000FFFFFFFFFFFFFFFFFFFFFFFFFFFFFFFFA3
:103D3000FFFFFFFFFFFFFFFFFFFFFFFFFFFFFFFF93
:103D4000FFFFFFFFFFFFFFFFFFFFFFFFFFFFFFFF83
:103D5000FFFFFFFFFFFFFFFFFFFFFFFFFFFFDEDBB8
:103D6000B5B6F7DEFFFFFFFFFFFFEF5D292500007F
:103D70000000000000000000000000000000000043
:103D8000000010E442ED6AAAD36AF5B3FF9BFEF986
:103D9000FEF9FF3AEE77CD73D616D616DE56DE362E
:103DA000F719FF19FEF9FF5AE75CE4F1AAE80000F1
:103DB000000000004A8B294500004AAB0000514436
:103DC000FDD4FFFDFFFEFFFFFFDCDBD1A8A7B0465F
:103DD000D0A8E0EAD0A9D90AD18B58A400000923C1
:103DE000FFFFFFFFFFFFFFFFFFFFFFFFFFFFFFFFE3
:103DF000FFFFFFFFFFFFFFFFFFFFFFFFFFFFFFFFD3
:103E0000FFFFFFFFFFFFFFFFFFFFFFFFFFFFFFFFC2
:103E1000FFFFFFFFFFFFFFFFFFFFFFFFFFFFFFFFB2
:103E2000FFFFFFFFFFFFFFFFFFFFFFFFFFFFFFFFA2
:103E3000FFFFFFFFFFFFFFFFFFFFFFFFFFFFFFFF92
:103E4000FFFFFFFFFFFFFFFFFFFFFFFFFFFFFFFF82
:103E5000FFFFFFFFFFFFFFFFFFFFFFFFFFFFFFFF72
:103E6000FFFFFFFFFFFFFFFFFFFFFFFFFFFFFFFF62
:103E7000FFFFFFFFFFFFFFFFFFFF21240000000007
:103E80000000000000000000000000000000000032
:103E900018A36B8F5B2D3A2992A9F4F0FEF9FF5B12
:103EA000FEF9FF19F6F9EEB8DE98E6B8DE15F6B8B9
:103EB000FF3AFEF9FED9FFFDCD73FC8D724800007C
:103EC00000001083634D39C800003A09000028C380
:103ED000FF19FFFCFFFCD451D047F007F8ABF8CB3B
:103EE000F8AAF88AF88AF869F86AF90CA0865823C3
:103EF000D453E6BBF7FFFFFFFFFFFFFFFFFFFFFF0E
:103F0000FFFFFFFFFFFFFFFFFFFFFFFFFFFFFFFFC1
:103F1000FFFFFFFFFFFFFFFFFFFFFFFFFFFFFFFFB1
:103F2000FFFFFFFFFFFFFFFFFFFFFFFFFFFFFFFFA1
:103F3000FFFFFFFFFFFFFFFFFFFFFFFFFFFFFFFF91
:103F4000FFFFFFFFFFFFFFFFFFFFFFFFFFFFFFFF81
:103F5000FFFFFFFFFFFFFFFFFFFFFFFFFFFFFFFF71
:103F6000FFFFFFFFFFFFFFFFFFFFFFFFFFFFFFFF61
:103F7000FFFFFFFFFFFFFFFFFFFFFFFFFFFFFFFF51
:103F8000FFFFFFFFFFFFFFFF528A0000000000005D
:103F900000000000000000000000000000000862B7
:103FA0005B0D5B0D6B6E21A71841D3ACED93FF9BAE
:103FB000FF19FEF9FF1AFF3AE677CD12D552EE77D8
:103FC000FF3AFEF9FF7ADE56ECAFCBCC0841000099
:103FD000000031867BF052AB000010A300002945A1
:103FE000FFFDFFFCD3D0D806F829F8AAF0CAF0CA22
:103FF000F0AAF8AAF8AAF0CAF0AAF8AAF8EBF0A971
:10400000D005D848DA6EDD56F7FFFFFFFFFFFFFF50
:10401000FFFFFFFFFFFFFFFFFFFFFFFFFFFFFFFFB0
:10402000FFFFFFFFFFFFFFFFFFFFFFFFFFFFFFFFA0
:10403000FFFFFFFFFFFFFFFFFFFFFFFFFFFFFFFF90
:10404000FFFFFFFFFFFFFFFFFFFFFFFFFFFFFFFF80
:10405000FFFFFFFFFFFFFFFFFFFFFFFFFFFFFFFF70
:10406000FFFFFFFFFFFFFFFFFFFFFFFFFFFFFFFF60
:10407000FFFFFFFFFFFFFFFFFFFFFFFFFFFFFFFF50
:10408000FFFFFFFFFFFFFFFFFFFFFFFFFFFFFFFF40
:10409000FFFFFFFFFFFF528A00000000000000004A
:1040A000000018C37BEF5AAB00000000000052ABC9
:1040B000632D634D8C7200215923B329BB4AE5D48B
:1040C000FFDCFEF9FEF9FF5AF697DD53FEB8FF3923
:1040D000FEF9FF3AEF1AD552EC6E20A20000000064
:1040E000000042089CF45AEC00000000000020A2EE
:1040F000F7FBDC72E006F86AF8CBF8CAF8AAF0AA77
:10410000F0CAF0AAF0AAF8AAF8AAF0AAF8CAF0CA67
:10411000D889F869F806E005CA8DEFBEFFFFFFFFFA
:10412000FFFFFFFFFFFFFFFFFFFFFFFFFFFFFFFF9F
:10413000FFFFFFFFFFFFFFFFFFFFFFFFFFFFFFFF8F
:10414000FFFFFFFFFFFFFFFFFFFFFFFFFFFFFFFF7F
:10415000FFFFFFFFFFFFFFFFFFFFFFFFFFFFFFFF6F
:10416000FFFFFFFFFFFFFFFFFFFFFFFFFFFFFFFF5F
:10417000FFFFFFFFFFFFFFFFFFFFFFFFFFFFFFFF4F
:10418000FFFFFFFFFFFFFFFFFFFFFFFFFFFFFFFF3F
:10419000FFFFFFFFFFFFFFFFFFFFFFFFFFFFFFFF2F
:1041A000FFFFFFFF5ACB000000001062318673CE84
:1041B000CEBAFFFFDEFB39A7000000002966634E80
:1041C000636EAD5532082020C309BB6BCBECBB6BD3
:1041D000DDF5FF5BFF3AFED9FF3AFF9BFF19FEF9C1
:1041E000FF19FF1ADE57FF396206000000000000C9
:1041F00018C46B4D9D3542082061000000003163FA
:10420000E46FF08AF86AE0C9E0A9E8C9F8CBF8CB16
:10421000F0AAF0AAF8AAF8AAF8AAF8AAF8AAF8CA7E
:10422000F8CAE8A9F8AAF8AAE805C1ABEFBEFFFFF3
:10423000FFFFFFFFFFFFFFFFFFFFFFFFFFFFFFFF8E
:10424000FFFFFFFFFFFFFFFFFFFFFFFFFFFFFFFF7E
:10425000FFFFFFFFFFFFFFFFFFFFFFFFFFFFFFFF6E
:10426000FFFFFFFFFFFFFFFFFFFFFFFFFFFFFFFF5E
:10427000FFFFFFFFFFFFFFFFFFFFFFFFFFFFFFFF4E
:10428000FFFFFFFFFFFFFFFFFFFFFFFFFFFFFFFF3E
:10429000FFFFFFFFFFFFFFFFFFFFFFFFFFFFFFFF2E
:1042A000FFFFFFFFFFFFFFFFFFFFFFFFFFFFFFFF1E
:1042B000E73C420800005ACBA555EF9DFFFFFFFFEA
:1042C000FF7D9C51000000000000084152CB73AFFD
:1042D000AD56847100006985D36BC3ACE48ED3CC3A
:1042E000ABCDD636EEB8FF5BFF19FEF9FEF9FEF94D
:1042F000FF5BDE36FFFCCD940000000000000000F4
:10430000422994B38CB329047207000000004A4785
:10431000FA0BD80790447023680278039044D0A821
:10432000F8EBF8AAF0CAF0CAF0AAF8AAF8AAF0CAFC
:10433000F8AAE8A9C888F8CAF8CAF005D2AEF7FF0B
:10434000FFFFFFFFFFFFFFFFFFFFFFFFFFFFFFFF7D
:10435000FFFFFFFFFFFFFFFFFFFFFFFFFFFFFFFF6D
:10436000FFFFFFFFFFFFFFFFFFFFFFFFFFFFFFFF5D
:10437000FFFFFFFFFFFFFFFFFFFFFFFFFFFFFFFF4D
:10438000FFFFFFFFFFFFFFFFFFFFFFFFFFFFFFFF3D
:10439000FFFFFFFFFFFFFFFFFFFFFFFFFFFFFFFF2D
:1043A000FFFFFFFFFFFFFFFFFFFFFFFFFFFFFFFF1D
:1043B000FFFFFFFFFFFFFFFFFFFFFFFFFFFFFFFF0D
:1043C000BDF7738EE73CFFFFFFFFFFFFE6DB69C72A
:1043D0005800080000000000000031C76B8F9CF3FC
:1043E000BDD721870000B2A8CBABDC6EDC4EE42D3C
:1043F000CC6FE698DE36DE36F6F9FF5AFF5AFF5AE2
:10440000E636EEB8FFFD21040000000000002104A4
:104410005B0DA555636E1861AB4B186100004083BE
:1044200090447003600168026803680258016002EA
:10443000B887F8EBF8CAF0AAF0CAF8AAF8AAF0CA46
:10444000F0CAF8CBC0A7C887F8CBF88AE005D577C3
:10445000FFFFFFFFFFFFFFFFFFFFFFFFFFFFFFFF6C
:10446000FFFFFFFFFFFFFFFFFFFFFFFFFFFFFFFF5C
:10447000FFFFFFFFFFFFFFFFFFFFFFFFFFFFFFFF4C
:10448000FFFFFFFFFFFFFFFFFFFFFFFFFFFFFFFF3C
:10449000FFFFFFFFFFFFFFFFFFFFFFFFFFFFFFFF2C
:1044A000FFFFFFFFFFFFFFFFFFFFFFFFFFFFFFFF1C
:1044B000FFFFFFFFFFFFFFFFFFFFFFFFFFFFFFFF0C
:1044C000FFFFFFFFFFFFFFFFFFFFFFFFFFFFFFFFFC
:1044D000FFFFFFFFFFFFFFFFFFFFAC314800800041
:1044E00088240000000000002125632D7BF0AD76BC
:1044F000845100005903D38BD40DE48FDC6EDC2D86
:10450000CC0DF698FF7BDE77E657DE36DE36DE57DB
:10451000DE77FFFD5A6900000000000008414A49AB
:1045200073D0B59629C81820F510316400006002D8
:104530003802680378037003700370037003680225
:104540005801A065F8CBF8CAF0CAF8AAF0AAF8AAF0
:10455000F0CAF8AAF0CAB8A7F0AAF8CAF807D0EAD1
:10456000EF7DFFFFFFFFFFFFFFFFFFFFFFFFFFFFED
:10457000FFFFFFFFFFFFFFFFFFFFFFFFFFFFFFFF4B
:10458000FFFFFFFFFFFFFFFFFFFFFFFFFFFFFFFF3B
:10459000FFFFFFFFFFFFFFFFFFFFFFFFFFFFFFFF2B
:1045A000FFFFFFFFFFFFFFFFFFFFFFFFFFFFFFFF1B
:1045B000FFFFFFFFFFFFFFFFFFFFFFFFFFFFFFFF0B
:1045C000FFFFFFFFFFFFFFFFFFFFFFFFFFFFFFFFFB
:1045D000FFFFFFFFFFFFFFFFFFFFFFFFFFFFFFFFEB
:1045E000FFFFFFFFFFFFFFFFC57628009001F92DB9
:1045F0005884000000000821632D5B4E73CFBDF886
:10460000426A0000AAC9CB8BE4AFE4AFBB6BBB6BC3
:10461000E46EF677FF5AFF3AFF5BCDB4CDB4F6B83F
:10462000FFFFC574000000000000000021256B8F13
:10463000A535A534004230E3F4D1210320007823CE
:1046400030026022800370037003700370037803EC
:1046500070035001C087F8ECF0CAF0AAF0AAF8AADB
:10466000F8AAF0CAF8ABD0A8C0A8F8CBF8AAE00521
:10467000DCD5FFFFFFFFFFFFFFFFFFFFFFFFFFFF97
:10468000FFFFFFFFFFFFFFFFFFFFFFFFFFFFFFFF3A
:10469000FFFFFFFFFFFFFFFFFFFFFFFFFFFFFFFF2A
:1046A000FFFFFFFFFFFFFFFFFFFFFFFFFFFFFFFF1A
:1046B000FFFFFFFFFFFFFFFFFFFFFFFFFFFFFFFF0A
:1046C000FFFFFFFFFFFFFFFFFFFFFFFFFFFFEF7D8C
:1046D000FFDFFFFFFFFFFFFFFFFFFFFFFFFFFFFF0A
:1046E000FFFFFFFFFFFFFFFFFFFFFFFFFFFFFFFFDA
:1046F000FFFFFFFFFFFFF7DE60C47801F90CC0C9C0
:104700000000000000001082634D5B0D73AFAD55DB
:1047100000627A47E48FB32AE48FDC0D9A67C38B7B
:10472000E44EF656FF7BFF19FEF9DE36FF3AFFFD39
:10473000EF3A20E3000000000000108252CB8C72A0
:10474000B5B77BF000002061888428004002782300
:10475000400238027003780370037003700378031B
:10476000680358027002E8C9F8CBF0AAF0AAF0AAD0
:10477000F8AAF0CAF8AAE8AAB086F0CAF8AAF00621
:10478000E331FFFFFFFFFFFFFFFFFFFFFFFFFFFF23
:10479000FFFFFFFFFFFFFFFFFFFFFFFFFFFFFFFF29
:1047A000FFFFFFFFFFFFFFFFFFFFFFFFFFFFFFFF19
:1047B000FFFFFFFFFFFFFFFFFFFFFFFFFFFFFFFF09
:1047C000FFFFFFFFFFFFFFFFFFFFFFFFFFFFFFFFF9
:1047D000FFFFFFFFFFFFFFFFFFFFF7BED6DBD6FCAB
:1047E000D6BAEF7DFFFFFFFFFFFFFFFFFFFFFFFFD9
:1047F000FFFFFFFFFFFFFFFFFFFFFFFFFFFFFFFFC9
:10480000FFFFFFFFFFFF9BAF4800F0AAF8ED50430A
:1048100000000000000010A3634E630D73AF4AAAAE
:1048200000009AA9E40DDC2EBBEC9A88A2A8DC6EED
:10483000D3ECEE15FFBCFF5AE677EE97FF39F75B36
:104840003165000000000000084252CB7BF0A53427
:10485000AD9652AB0000280080025022502278030F
:10486000580220013802702380037803700370031C
:104870007003582240019825F8EBF8CAF8AAF0AA6C
:10488000F8AAF0CAF0AAF8CBB8A7C087F8CBF80806
:10489000E12BEFBEFFFFFFFFFFFFFFFFFFFFFFFF6B
:1048A000FFFFFFFFFFFFFFFFFFFFFFFFFFFFFFFF18
:1048B000FFFFFFFFFFFFFFFFFFFFFFFFFFFFFFFF08
:1048C000FFFFFFFFFFFFFFFFFFFFFFFFFFFFFFFFF8
:1048D000FFFFFFFFFFFFFFFFFFFFFFFFFFFFFFFFE8
:1048E000FFFFFFFFFFFFFFFFFFFFD699E6B8FFDDE9
:1048F000F7BED6BAF7BEFFFFFFFFFFFFFFFFFFFFC8
:10490000FFFFFFFFFFFFFFFFFFFFFFFFFFFFFFFFB7
:10491000FFFFFFFFEFFE48429802F8CCF8CC60643E
:1049200000000000000018C36B8E5B0C630D00627A
:104930002040BC2EB4B1D46EDBAAA2A8B32AECB03E
:10494000D3ECE4D0FEF8DE15BD94DEB9EF7C8C0F1D
:1049500000000000000000004229634E9492B596CA
:10496000AD761904000038008003682260027003ED
:104970007803380228014002602378037803780323
:104980008003680340025002D088F8EBF0AAF0AA36
:10499000F8AAF0CAF0CAF8CAD8A8B086F8CAF88A45
:1049A000E006DDD7FFFFFFFFFFFFFFFFFFFFFFFF79
:1049B000FFFFFFFFFFFFFFFFFFFFFFFFFFFFFFFF07
:1049C000FFFFFFFFFFFFFFFFFFFFFFFFFFFFFFFFF7
:1049D000FFFFFFFFFFFFFFFFFFFFFFFFFFFFFFFFE7
:1049E000FFFFEFBEDF3CDF1CDF1CDF1CE73CF7BE38
:1049F000FFFFFFFFFFFFFFFFE73CE677FF18F6B77B
:104A0000FF5BF79DCE99EF7DFFFFFFFFFFFFFFFFED
:104A1000FFFFFFFFFFFFFFFFFFFFFFFFFFFFFFFFA6
:104A2000FFFFFFFF8C101800B866F8ECF8EBB8C871
:104A300000000000000018A36B6E632D42490000C7
:104A40009267FD51E5B4DEB9E5D5ED52C3EDCBCBB0
:104A5000EC4DBB09CD33D6DADEDAF77CFFFF39C780
:104A60000000000008414269634E8452B596A55586
:104A7000420900003103BB0B700270025022480251
:104A80008003780348023002300138224822500265
:104A900058025002302230017823F0CAF8CBF8AA2D
:104AA000F0CAF8AAF0AAF8CAF0CAB0A6E8C9F8AAEB
:104AB000F006D330F7FFFFFFFFFFFFFFFFFFFFFF11
:104AC000FFFFFFFFFFFFFFFFFFFFFFFFFFFFFFFFF6
:104AD000FFFFFFFFFFFFFFFFFFFFFFFFFFFFFFFFE6
:104AE000FFFFFFFFFFFFFFFFFFFFFFFFFFFFFFFFD6
:104AF000E6FBC553EEFBEF5CEF5CE73DDF1CD6DB6E
:104B0000DEDBF7FFFFFFE77DDE78FED8E615FEF976
:104B1000FF39EED9BE58C639D6DBFFFFFFFFFFFFD6
:104B2000FFFFFFFFFFFFFFFFFFFFFFFFFFFFFFFF95
:104B3000FFFFEF9D50633800A866F8CBF88AF8ECC9
:104B40003042000000001082634E6B6E10E4188249
:104B5000ED94E42DCAA7EDF6FFFFFFDDF6F8C44E95
:104B6000B36BCDF6EF7CFF9CFF5BFFBBDE16000056
:104B7000000000004A6A634E73D0BDF8A53529666F
:104B800000001882BB8BF4CE898660014822280180
:104B900050227803702368235022402248023001BB
:104BA000202120013002300230019844F8EBF8CB8C
:104BB000F0AAF8AAF0AAF8AAF8CBB887D8A8F8AA59
:104BC000F809E90BE79DFFFFFFFFFFFFFFFFFFFF76
:104BD000FFFFFFFFFFFFFFFFFFFFFFFFFFFFFFFFE5
:104BE000FFFFFFFFFFFFFFFFFFFFFFFFFFFFFFFFD5
:104BF000FFFFFFFFFFFFFFFFFFFFFFFFFFFFFFFFC5
:104C0000D5B5C2E8FE76FF7BFF3AFFBCE6FADF1BB4
:104C1000E73CC5D6DE57DEB9F6D8F719BC4ECCF264
:104C2000FFDCEE97DE98DEDBCE9AE71CFFFFFFFF8E
:104C3000FFFFFFFFFFFFFFFFFFFFFFFFFFFFFFFF84
:104C4000FFFFA51440006801B086F8EBF8A9F8CC86
:104C5000B0870000000000205ACC6B8F00006AEB88
:104C6000FFFFF698E552CB6AE616FFFFFFBCE6773A
:104C7000D5F6FFFFFF3AFED8FEF9FFFE9C4F00007D
:104C800000002945632D5B0DA5349D1421250000EE
:104C90004A8AEF5DFEDAC511C44E50003801380271
:104CA00038024002480250225822780378036823D1
:104CB000502240223002200020014801A045F8EB9C
:104CC000F8CBF0CAF0AAF8AAE0CA9044D888F8EB6A
:104CD000F0289886EF5CFFFFFFFFFFFFFFFFFFFF5D
:104CE000FFFFFFFFFFFFFFFFFFFFFFFFFFFFFFFFD4
:104CF000FFFFFFFFFFFFFFFFFFFFFFFFFFFFFFFFC4
:104D0000FFFFFFFFFFFFFFFFFFFFFFFFFFFFFFFFB3
:104D1000DE99B2E7F5B3FFBCFEF9FEF8D5F5DE5734
:104D2000FFFFDDF6BBABFF7BFF5AFF3AEEB8BD12CB
:104D3000D5F6FF7BFF39FFFDF7DFD6BAFFFFFFFF98
:104D4000FFFFFFFFFFFFFFFFFFFFFFFFFFFFFFFF73
:104D5000FFFFA4D340006001A066F88AF008E828AD
:104D6000F8A928220000000031876B8F00008BAD6E
:104D7000FFFEFF5AFFDCEDD5CB6AEEFBFFFFFF3AEB
:104D8000FF5BFED9FEF9FEFAFF19FFFE6B0B000078
:104D900008214AAB4AAB8C72949208420000944FAF
:104DA000FFFFFFFFFFFFFFFFFFFF726A18003802DF
:104DB0004002380230022801580378037003780358
:104DC00078037803C8C8A0A7302118005001904488
:104DD000E0C9F8EBF8EBF8EBB0877023F8EBF8EBF1
:104DE000680072ABFFFFFFFFFFFFFFFFFFFFFFFF4A
:104DF000FFFFFFFFFFFFFFFFFFFFFFFFFFFFFFFFC3
:104E0000FFFFFFFFFFFFFFFFFFFFFFFFFFFFFFFFB2
:104E1000FFFFFFFFFFFFFFFFFFFFFFFFFFFFFFFFA2
:104E2000FFFFCD54C38BEE56FF5BFFDCEED9DE7780
:104E3000FFFED5B5BB29DD73FF9CFEF8FF3AFF9B53
:104E4000DE77DE56F6D8F73BD6DBEF7DFFFFFFFFC0
:104E5000FFFFFFFFFFFFFFFFFFFFFFFFFFFFFFFF62
:104E6000FFFFD6DA480058009803E94CDA4DDB30F2
:104E7000F475822B0000000008415AEC00018BCD34
:104E8000FFFEFEF9FF19FFBCE573DDB5F79EF6984E
:104E9000FF1AFEF9FF19FEF9FF19FFFC5248000046
:104EA00021045AEC634D7C31086200009470FFFFCE
:104EB000FF19F75BF7DFF7DEFFFFE77D3001380012
:104EC000400240023002400268037803700370031E
:104ED00070026802F8CAF92EE0CA686440015801FD
:104EE0007003A065B066B087A0868024D0C89823E0
:104EF0003800CE18FFFFFFFFFFFFFFFFFFFFFFFFA0
:104F0000FFFFFFFFFFFFFFFFFFFFFFFFFFFFFFFFB1
:104F1000FFFFFFFFFFFFFFFFFFFFFFFFFFFFFFFFA1
:104F2000FFFFFFFFFFFFFFFFFFFFFFFFFFFFFFFF91
:104F3000FFFFFFFFE699C574ABEDD4D0DD93D5D468
:104F4000C4B0BB6BB309BBCCEE98FFFDFF7BFF9BEE
:104F5000FF5AD4D0CBECC42EFF7DFFFFFFFFFFFF35
:104F6000FFFFFFFFFFFFFFFFFFFFFFFFFFFFFFFF51
:104F7000FFFFFFFF6A294000D2CFF4B6FD98FDB8CD
:104F8000FE1BDC7300000000000031860021940E3F
:104F9000FFFDFF19FEF9FF19FF59F6B8C533F67783
:104FA000FF3AFEF9FEF9FEF9FF3AFF7B316500009A
:104FB00031A7634E632D08410000C5B5FFFEFF39E0
:104FC000FED8FED9F79DF7FFFFFFFFFF61C808007D
:104FD0002000100018003801680378037003700384
:104FE000700368027823E0A9F8ECF8ECC8C87023D5
:104FF000580150015801680270236802600148009E
:105000007106FFFFFFFFFFFFFFFFFFFFFFFFFFFF37
:10501000FFFFFFFFFFFFFFFFFFFFFFFFFFFFFFFFA0
:10502000FFFFFFFFFFFFFFFFFFFFFFFFFFFFFFFF90
:10503000FFFFFFFFFFFFFFFFFFFFFFFFFFFFFFFF80
:10504000FFFFFFFFFFFFFFFFD5F7B3ACBB4ABB6B12
:10505000BB2ADC2E8A06A2A8DD31DDF5E593D51149
:10506000CBCDD3CCF46DA3097555EF9EFFFFFFFFA9
:10507000FFFFFFFFFFFFFFFFFFFFFFFFFFFFFFFF40
:10508000FFFFFFFFC556CAEFFDDAFD37F371F26F80
:10509000F22EFC32624600000000084100009C4FE6
:1050A000FFFDFF19FEF9FEF9FF5AE677CD11FF3A31
:1050B000FF19FEF9FEF9FEF9FF5AFF3A20E300005E
:1050C0003A296B6E10830000CDD5FFFFFF19FEF863
:1050D000FF1AFEF9FF7BEFBEDEDBDF1CCE39734D1E
:1050E00059E894317B0D1000400080047003700378
:1050F0007003780358017823F0CAF8ABF8ECE0E9C4
:1051000070234001400148015001500270033800F3
:10511000A472FFFFFFFFFFFFFFFFFFFFFFFFFFFF87
:10512000FFFFFFFFFFFFFFFFFFFFFFFFFFFFFFFF8F
:10513000FFFFFFFFFFFFFFFFFFFFFFFFFFFFFFFF7F
:10514000FFFFFFFFFFFFFFFFFFFFFFFFFFFFFFFF6F
:10515000FFFFFFFFFFFFFFFFFFFFF7DFCD13C34997
:10516000EC6EDBEDAA879227A2C9D4F1D553D4D136
:10517000CCF1D42DE3CCBC4E0D141D35EFBEFFFF9A
:10518000FFFFFFFFFFFFFFFFFFFFFFFFFFFFFFFF2F
:10519000EFBED597FCB6FD99F3D3E98CF049F00842
:1051A000F007EA0BDD0F1861000000000000A4B159
:1051B000FFFDFEF9FEF9FF19FF7BDDD5D511FF7B61
:1051C000FEF9FEF9FEF9FEF9FF7BEEB8084100009A
:1051D000632D29660000AD12FFFEFEF9FEF9FF1AED
:1051E000FEF9DE36E6D9DF1CDEDAEF3CFFFEFF9B80
:1051F000FF9BFFFFFFFF9C922000480070026001B0
:1052000068027002780358019845F8EBF8AAF8EBA9
:10521000E0A988657864884490447023380071A7B9
:10522000F7DEFFFFFFFFFFFFFFFFFFFFFFFFFFFFB7
:10523000FFFFFFFFFFFFFFFFFFFFFFFFFFFFFFFF7E
:10524000FFFFFFFFFFFFFFFFFFFFFFFFFFFFFFFF6E
:10525000FFFFFFFFFFFFFFFFFFFFFFFFFFFFFFFF5E
:10526000FFFFFFFFFFFFFFFFFFFFFFFFD69ABB8C93
:10527000CBCC9A67A26791E681A4D572FFFEFFDDD1
:10528000FFFCE551AAC8FF18769905152BCFAE395A
:10529000FFFFFFFFFFFFFFFFFFFFFFFFFFFFF7FF26
:1052A000D474F3D3FCD6EAF0E849F008F8AAF8AAD7
:1052B000F86AD8A9F530934B000000000000ACF26A
:1052C000FFFDFEF9FF19FEF9FF7BDD94D512FF7B90
:1052D000FEF9FF19FEF9FEF9FFBBE657000018E4DE
:1052E0005AEC00009C4FFFFFFEF9FEF9FF3AEE97E3
:1052F000D658EFBEF7DFFF7DFF7CFEF9FED8FF5AE0
:10530000F6D8D5B4E6DAFFFFBDF838C3892791484F
:1053100058027003700368036001D0A7F8EBF88AA5
:10532000F8CBE8CAF8AAF8EBF8EBF0898864DF3C20
:10533000FFFFFFFFFFFFFFFFFFFFFFFFFFFFFFFF7D
:10534000FFFFFFFFFFFFFFFFFFFFFFFFFFFFFFFF6D
:10535000FFFFFFFFFFFFFFFFFFFFFFFFFFFFFFFF5D
:10536000FFFFFFFFFFFFFFFFFFFFFFFFFFFFFFFF4D
:10537000FFFFFFFFFFFFFFFFFFFFE6FBDE57EEB87B
:10538000DDF6DE16CD73B490BC0DAAC9DD53FFBBAC
:10539000FF7BEEB8A36BEE156E3705D8030D043115
:1053A0005E18EF3CF75DEF3CEF7DF7FFEF7DDD979B
:1053B000EC14FCD6F1CDF007F869F0CAF8AAF8AA07
:1053C000F0CAF009DA6AE550186100000000AD1279
:1053D000FFFEFEF9FF19FEF9FF7BDDD4CCD0FF5BA9
:1053E000FEF9FEF9FEF9FEF9FFDCD5F600002966AC
:1053F00000212904FFFEFF3AFEF9FF19EE97D6B906
:10540000F7DFDE79F71AFF7BFEB8FEF8FEF9FF3A08
:10541000F6D9F6B8FED9FFBDFFFFEFBEDE39DCB529
:10542000CB9199EA6000700360028824F8EAF8CA18
:10543000F8CAD889E8AAE0A9E8A9F8ABF808E536DF
:10544000FFFFFFFFFFFFFFFFFFFFFFFFFFFFFFFF6C
:10545000FFFFFFFFFFFFFFFFFFFFFFFFFFFFFFFF5C
:10546000FFFFFFFFFFFFFFFFFFFFFFFFFFFFFFFF4C
:10547000FFFFFFFFFFFFFFFFFFFFFFFFFFFFFFFF3C
:10548000FFFFFFFFFFFFFFFFEFBEE657FF59FF7B68
:10549000FF9BFFFDF739EF9BFE98C30AA2A7DE151D
:1054A000FFDDFFFDDD9492C91D5506390B6E05B772
:1054B0000596A3F2F434EC34DC54D556D433D371CE
:1054C000FCF6E98CF007F8AAF0CAF8AAF8AAF0CA24
:1054D000F0A9F8AAE008EBCEAC0C00000000A3ADE8
:1054E000FFFCFF5AFEF9FF19FF5BEE97C44FFED891
:1054F000FF5AFEF9FEF9FEF9FFFCCD9400000021F1
:105500000000DE77FFFCFEF9FEF9FF19E6B9E75C63
:10551000ED52BAE89B4AE6B8FF7CFF5AFF9BEE9734
:10552000F6B8FF39FF19EE98DEB9FFFFFFFFDEFB8B
:10553000F455F4135801680170035801C887F8EB5B
:10554000F8CAF0A9E8CAB0875822F0EAF849D88822
:10555000E73CFFFFFFFFFFFFFFFFFFFFFFFFFFFF36
:10556000FFFFFFFFFFFFFFFFFFFFFFFFFFFFFFFF4B
:10557000FFFFFFFFFFFFFFFFFFFFFFFFFFFFFFFF3B
:10558000FFFFFFFFFFFFFFFFFFFFFFFFFFFFFFFF2B
:10559000FFFFFFFFFFFFFFFFF7DFDE99E636FF5A51
:1055A000FF7BFF5BFF19DD94BBACB36BC4F2AB8C2C
:1055B000DD73FFFDFF397CF205F905140B4E06592A
:1055C00005F78453FC34FC54FC75DB50CACEF51649
:1055D000FB11F007F8AAF8CAF8AAF0CAF0C9F0CA95
:1055E000F8AAF8CAF829D929FDD249E6000092A8FC
:1055F000FDB3FF5AFF7BFF5AFF5BF6F9BBEDE57386
:10560000FFDDFF5BFF19FEF9FFFDBD730000000029
:105610008BADFFFFFEF9FEF9FEF9FEF8F7DEC5746B
:10562000B2A7FCCFBB29B40EFF9CFE76CCF1C553CC
:10563000F719FF19FF3AE656E616FF1AFFFEE77C58
:10564000D574DBD2920B680078006002A045F8EBBD
:10565000F8A9F8CAE0A9F8EB80448844F8ECE8051A
:10566000DC73FFFFFFFFFFFFFFFFFFFFFFFFFFFFF9
:10567000FFFFFFFFFFFFFFFFFFFFFFFFFFFFFFFF3A
:10568000FFFFFFFFFFFFFFFFFFFFFFFFFFFFFFFF2A
:10569000FFFFFFFFFFFFFFFFFFFFFFFFFFFFFFFF1A
:1056A000FFFFFFFFFFFFFFFFFFFFF7BED617CC8F07
:1056B000DCAFDC8FCC0DB3ACBC2EE676FFFDEE7715
:1056C000A34BBC0DFD11551406BB0B0D0452069ADD
:1056D000061854B4FC33FC74FCB6E413C30FFCD6B8
:1056E000F12BF829F8CAF0AAF0AAF0AAF0AAF0AAB9
:1056F000F0AAF0CAF8AAF029DAABE55020E382A8B4
:10570000FC8FDCAFDD52E511E4F0E4F0CBCCDC0D36
:10571000E593F6B8FF7BFF9BFFFEBD5300003165AC
:10572000FFDCFF5AFEF9FEF9FF19EE97E75CE6DAB7
:1057300092A8CBECECAFD3CCC3ECC4B0CDB6F71A87
:10574000FF5AFEF9FEF9FF3AFEF8F6D8FFFEE73CF5
:10575000FF79DDB5EC347ACD40A470009802F8CA28
:10576000F8CBF0CAC888D089F0CB6843B887F8294D
:10577000D96BEFDEFFFFFFFFFFFFFFFFFFFFFFFF24
:10578000FFFFFFFFFFFFFFFFFFFFFFFFFFFFFFFF29
:10579000FFFFFFFFFFFFFFFFFFFFFFFFFFFFFFFF19
:1057A000FFFFFFFFFFFFFFFFFFFFFFFFFFFFFFFF09
:1057B000FFFFFFFFFFFFFFFFFFFFFFFFFFFFDE58C1
:1057C000B3EEC46FD5B4EEB8FFDDFFFDFF7AFFFE88
:1057D000BCB1AA88EB494DD604F5026A0617061932
:1057E000065934F4FC13FC95FC75FC14E475FBF4C9
:1057F000F049F0A9F8AAF0AAF0AAF0AAF0AAF0AA33
:10580000F0CAF8AAF0CAF88AE028BA494184930A93
:10581000FD52DC2DE40DE42DD3CBB2E9AAE9C3ABF4
:10582000CB6ADC2DE532EDF5FF9BACB10000B55342
:10583000FFFFFF3AFF3AFF3AFF7BE677DF3CFFFFCF
:10584000C3CDAB2ADBEBC3ECCDF6EFBEFFFEFF19F9
:10585000FED9FF1AF6D8DE57D658E71BFFFFDEDA6F
:10586000F6B8FFBAFCB4953704B339666044F00665
:10587000E8A9D8A9D8A9D889F0CAB0A77844F0AACD
:10588000E806DD36FFFFFFFFFFFFFFFFFFFFFFFF23
:10589000FFFFFFFFFFFFFFFFFFFFFFFFFFFFFFFF18
:1058A000FFFFFFFFFFFFFFFFFFFFFFFFFFFFFFFF08
:1058B000FFFFFFFFFFFFFFFFFFFFFFFFFFFFFFFFF8
:1058C000FFFFFFFFFFFFFFFFFFFFFFFFFFFFFFFFE8
:1058D000E75DEED9FFFEFF9CFEB8EDD4ED52CC8F14
:1058E000CC2DFCCF8B0A13CF0B4D04F4067A05F8B0
:1058F00005F78474FC55E3F3E2CFC888DBB2FB52B2
:10590000F008F0CAF0AAF0AAF8AAF0AAF0AAF0AA41
:10591000F8AAF0AAF8AAF8CAF8EB9004480070E4D4
:10592000B38BD40DC3CCB3299A47B40EDE77DE1601
:10593000CC90CBECC329D38BFD316A481041F5F4F0
:10594000EE56F677F698FEF9F697C5B5EF9DFFFF90
:10595000E593D329BBCDDEFBFFFFFF7CFED8FEF92C
:10596000FEF9FF3AEE77DE77F75BFF9EFFDEE77D1D
:10597000D657F75AF575D3921514065905F76A0CE0
:10598000F807F8CAF8CAF8CAF8CAF8EBE0A9D0A82C
:10599000E006DAF0F7FFFFFFFFFFFFFFFFFFFFFF6B
:1059A000FFFFFFFFFFFFFFFFFFFFFFFFFFFFFFFF07
:1059B000FFFFFFFFFFFFFFFFFFFFFFFFFFFFFFFFF7
:1059C000FFFFFFFFFFFFFFFFFFFFFFFFFFFFFFFFE7
:1059D000FFFFFFFFFFFFFFFFFFFFFFFFFFFFFFFFD7
:1059E000EFDFDE37F614EDB3D48EC38BBB2ABB4A90
:1059F000FCAECC0D022A01670B2D0E7A065A065911
:105A00002D15FBF3FC75EC34EC13DB71BB2F90C64A
:105A1000E848F8CBF8AAF8AAF0CAF0AAF0AAF0AAC7
:105A2000F0AAF0AAF0AAF0AAF8EBC0886801580022
:105A300070C3AB09A2879A25D532FFFDFFBBFF7B60
:105A4000F73AE6B7D594C40EDBCC7227A30BFCCF94
:105A5000DBECDC0DDC4DD44ED4AFC554EF7EFFFF44
:105A6000FF7CBC0EE71CFFFFFF19FED8FEF9FF19F3
:105A7000FEF9FF1AFF7BFF19FED8FEF8FEF9FF5B67
:105A8000EFBEDEFAEE77F43363F10555071C069995
:105A900099CCF808F8AAF0AAF0AAF8AAF8CAF8CAA5
:105AA000D005C34FFFFFFFFFFFFFFFFFFFFFFFFF1B
:105AB000FFFFFFFFFFFFFFFFFFFFFFFFFFFFFFFFF6
:105AC000FFFFFFFFFFFFFFFFFFFFFFFFFFFFFFFFE6
:105AD000FFFFFFFFFFFFFFFFFFFFFFFFFFFFFFFFD6
